:040000006F106035E8
:10000400000000000000000054130000541300001E
:100014000000000054130000000000000000000075
:1000240054130000541300000000000000000000FE
:1000340054130000000000005413000000000000EE
:100044005413000054130000541300000000000077
:100054005413000054130000541300005413000000
:1000640054130000541300005413000054130000F0
:1000740054130000541300005413000054130000E0
:1000840054130000541300005413000054130000D0
:1000940054130000541300005413000054130000C0
:1000A40054130000541300005413000054130000B0
:1000B40054130000541300005413000054130000A0
:1000C4005413000054130000541300005413000090
:1000D40054130000541300005413000000000000E7
:1000E400000000000000000000000000000000000C
:0C00F40000000000000000000000000000
:10010000397101436EC619A0397141536AC866CA74
:1001100062CC5ECE19A0397101535AD056D252D456
:100120004ED64AD826DA22DC06DE330161408282CE
:1001300041114AC026C222C406C68282B24D410184
:10014000024D924C224CB24B4101024B924A224A40
:10015000B2494101024992442244B24041018280A5
:100160002A8309CA83830500230073007D160503D3
:1001700085056DFA8280102194210505850563139C
:10018000D60075FA3305D6408280B71702409843EF
:10019000B70600F99386F6F51367170098C3D8439E
:1001A00013670705D8C3D843758FD8C337270240D4
:1001B0001443F19A14C3144393E6260014C3D8439E
:1001C0001377F7F0D8C3D843D8C38280B71602405C
:1001D000D842B70700209387070011833D8BBA9759
:1001E0009C23D4423777DC02130707C093F6060836
:1001F00013F6F70FB357F70099E2B357C702370763
:1002000000202328F7068280EFF29FF2130101DD20
:100210000808EF00D0440C084800812A4812F92A47
:100220004C124800452A50120C086809AD2950129A
:100230000C08C812EF00605B91460D468945280105
:10024000EF00D0142801EF005016D41293140501CA
:1002500070092C012818892E50120C086819EF001B
:10026000B0372801EF003014AA857019481BEF0041
:1002700010141306007D9305007D2808EF00D03C84
:100280001306803E9305803E0810EF00F03B1306F6
:10029000401F9305401F2810EF00103B1306A00FCE
:1002A0009305A00F0818EF00303A814630088945C1
:1002B000A800EF007037814610108945A808EF00AC
:1002C000B036814630108945A810EF00F0358146E0
:1002D00010188945A818EF003035B0008145481B3B
:1002E000EF003012B0088545481BEF009011B010A8
:1002F0008945481BEF00F010B0188D45481BEF00F2
:1003000050100C085012E811EF00C065E811EF0022
:10031000407568802800EF00605E1305A100EF00C3
:10032000E05D8A852800C1803523E811EF00607305
:100330008A8568802800392B2800EF00A0566C00C1
:100340000DC12800EF00E0590144E30094FE6C0069
:100350002818D9240504481B4204EF00B01C418032
:10036000EDB72800EF002058C5B70CC18280EFF22E
:100370003FDC41112A84AE84680001468145EF00CC
:10038000904808407000A685EF00702E4101D9B357
:10039000EFF21FDA90318C2141112A846800EF00BE
:1003A000504B08406C00EF007032410165B3EFF232
:1003B0003FD89C2141476379F700BD1793F7F70FAA
:1003C0000D476376F70079B385055537EDBF850591
:1003D000C137D5BFEFF2DFD52A89AE840144268527
:1003E000D1226363A400BDB3A2852685AD2AAA8568
:1003F00005044A856D3F1374F40FD5B7EFF25FD350
:100400002A84230005001D4681450505EF00904222
:1004100085473CB01305440019468145EF009041E3
:1004200089477CA01305740015468145EF00904074
:100430008D471CB41305A40011468145EF00903F81
:1004400091475CA41305D40019468945EF00903EFE
:1004500095477CB41305040129468145EF00903D82
:1004600099473CA81305340139468145EF00903C7B
:100470009D475CB81305640135468145EF00903B0C
:10048000A1471CAC1305940131468145EF00903A19
:10049000A5473CBC1305C4012D468145EF009039AA
:1004A000A9477CAC1305F40105468145EF0090385F
:1004B000AD47A300F402130524025D468145EF0019
:1004C0007037B1472302F4021305540201468145F7
:1004D000EF005036B547A303F402130584025946D2
:1004E0008145EF003035B9472305F4021305B40206
:1004F00005468545EF001034BD47A306F4021305F9
:10050000E4021D468945EF00F032C1472308F4029A
:100510001305140301468545EF00D031C547A309F3
:10052000F4021305440321468545EF00B030C94766
:10053000230BF402130574031D468545EF00902F2D
:10054000CD47A30CF4021305A40319468545EF001B
:10055000702ED147230EF402154685451305D403AA
:10056000EF00502DC5BED14763F5B7001305C50395
:1005700082808D47B385F5022E95828081470D4696
:10058000D5463387C7023308E500034808006315E2
:10059000B80005073A9582808507E394D7FE1305D6
:1005A000D5038280554582800CC150C114C582801C
:1005B000EFF21FB82A840845AE84B285B92C4840B2
:1005C000A685092A1C400567130707FA9C43B387D1
:1005D000E70201476310F7024840A685112A1C4034
:1005E0000567130707FADC43B387E7020147631681
:1005F000F7008DB601000507F1BF01000507C5BF73
:100600002E86854575B72E8689455DB72E868D4524
:1006100045B72E86914569BFEFF29FB12E84AC316C
:10062000AA84F93F2C202685F93F0C302685F93F16
:100630000C202685F93F39BEEFF29FAF2A84AE84A5
:100640003285A94532891D3FAA852685EF00D00A4B
:1006500008C04CC04A85AD451537AA852685EF00F0
:10066000B00908C44CC44A85B145093FAA8526850E
:10067000EF00900808C84CC84A85B5450137AA85DF
:100680002685EF00700708CC4CCCE9B4EFF25FAAE6
:100690002A8493040502228581452104EF0050201D
:1006A000E31B94FE45BCEFF2BFA841112A84AA8443
:1006B00013090502268532C62EC4A104EF0050217D
:1006C000A2453246E39824FF2285BD3722857D3F2F
:1006D000410149B4FD1593F7F50F0D4793F5F50F5B
:1006E0006373B7008D478E0785453E956F00501B9D
:1006F000FD1593F7F50F0D4793F5F50F6373B700ED
:100700008D478E0781453E956F009019EFF25FA2ED
:100710002A84AE843285A54532898D35AA85268501
:10072000EF00807D08C04CC04A858145813DAA8587
:100730002685EF00607C08C44CC44A8585453D3D54
:10074000AA852685EF00407B08C84CC84A858945A4
:100750003535AA852685EF00207A08CC4CCC4A8511
:100760008D45293DAA852685EF00007908D04CD01B
:100770004A8591452135AA852685EF00E07708D482
:100780004CD44A859545DD3BAA852685EF00C07689
:1007900008D84CD84A859945D533AA852685EF00D7
:1007A000A07508DC4CDC4A859D45C93BAA85268599
:1007B000EF00807428C06CC04A85A145C133AA856A
:1007C0002685EF00607328C46CC46FF0BF98EFF209
:1007D0003F962A8493040505228581452104EF0074
:1007E000300CE31B94FE6FF0FF96EFF27F94411103
:1007F0002A84AA8413090505268532C62EC4A104BD
:10080000EF00100DA2453246E39824FF2285FD3DFE
:100810002285753F41016FF0FF93EFF2DF8F25478F
:100820002A89A5476363B700AE8793F4F70F0144A5
:10083000A949931734003305F9009377F40F8545E0
:100840006383F40081450504EF009005E31334FF52
:100850006FF0BF8F3C211CA13C311CB19C213CA1FD
:100860009C313CB182803C3118313385E7401375AF
:10087000F50F7D1513351500828018213C21998FC5
:1008800093F7F70F0547639DE7001C313831338537
:10089000E7401375F50F130555FC133515008280DD
:1008A00001458280EFF2DF8841112A84B92809E5E9
:1008B000014541016FF01F8A930524002E852EC645
:1008C000A9207DD5B2452285B52865F5030704002A
:1008D0008307240022856314F7007137D9BF713F65
:1008E000C9BF090589A081A0A94733F7F502B3D58F
:1008F000F50218A1B3F5F5020CB18280FD571CA1D9
:100900001CB182800CA110B182808307150063CADC
:10091000070014215D4701456366D70013A5C7038F
:10092000828001458280EFF2BF802E84830515000E
:10093000AA842285553F83850400130524006D3762
:100940006FF05F810307050083870500631AF700D6
:1009500003051500838715001D8D13351500828052
:1009600001458280EFF22FFB2A84AE843289130A7C
:10097000C400B9224A86A6855285BD229309840106
:100980004A86A6854E8569229307440200D4232611
:100990004403232834035CD86FF02FFBEFF24FF9A8
:1009A0002A840845452248408145692A0100010002
:1009B000010001004840854571220100010001004D
:1009C00001006FF02FF9EFF20FF52A844841AE8451
:1009D0008145328A852A084085455149A522010072
:1009E0007D19E31E09FE084495222685EF00606FFD
:1009F00093751500AA89228555379D4493D5190012
:100A0000FD1493F9F50F2285858993F4F40F793756
:100A1000F5F408449D49992A484081452522010062
:100A200001000100010008440522B317250193F7D6
:100A3000F70FDD8C631C390193F5F40F5285EF003D
:100A4000A06C08408145FD286FF02FF04840854597
:100A5000D528010001000100010093F4F40F0509FD
:100A600065BFEFF2EFEC79712A840810EF00606B3C
:100A70002810EF0000702808854601469145EF00D8
:100A8000C0658546680801468945EF000065130585
:100A9000840210102C082AC63D37324530106C08ED
:100AA0001D370810EF00206B2AC62810EF00E06BFE
:100AB000B2452A860808B935A88045616FF08FE9EC
:100AC000EFF20FE741112E84AA84B9453285EFF089
:100AD000FFAAAA8522850D212A86AE862685A285B3
:100AE000A12841016FF00FE7EFF28FE441112E844E
:100AF000AA84BD453285EFF07FA8AA852285ED2E18
:100B00002A86AE862685A285052841016FF08FE4EE
:100B1000EFF20FE241112E84AA84C1453285EFF035
:100B2000FFA5AA852285C92E2A86AE862685A2859E
:100B3000212041016FF00FE241110CC150C114C5D9
:100B4000410182801105A9AB1105B5A3EFF24FDE7B
:100B500041112A84014668008145752108407000D2
:100B600093054400052E41016FF0CFDEEFF24FDC1C
:100B700041112A84054668008545712108407000AE
:100B800093054400012E41016FF0CFDC0CC1B295FA
:100B900014A5B386D5029307803E50C1B3D7D702C0
:100BA00054C51CC982804845828008498280EFF282
:100BB0002FD82A840CC150C19304850013098504E1
:100BC0002685C104B924E39D24FF2324040423269D
:100BD000040423280404232A0404232C0404232EBD
:100BE00004042320040623220406232404062326C7
:100BF000040623280406232A0406232C04066FF087
:100C00006FD5EFF2EFD22A841395450032892295F1
:100C1000AE844146CA852105EFF08FD4B307940016
:100C200005472384E704832749008A0426947CC46B
:100C3000832789007CCC8327C9007CD46FF08FD1B7
:100C4000B307B50023840704B147B385F5024841D3
:100C50002E9531A1139725002A977C471441958F33
:100C60007CC799E7B147B385F50248412E9531A17C
:100C70008280EFF2EFCBB147B387F5022A84484177
:100C8000AE843E95E92E93974400A297D8478A04F4
:100C9000269478C49C4B7CCC6FF0CFCB93962500E8
:100CA000AA96F04E0328050033060641F0CE0DEA61
:100CB000EFF20FC8F05613974500B307E5007D1615
:100CC000F0D6984785466307D70089476305F70044
:100CD0006FF04FC819C2713FE5BF23A40700CDBF15
:100CE0008280EFF2EFC4B147B387F5022A8448410E
:100CF00041112EC63E955D26B24511C52285993F0C
:100D000041016FF02FC52285513FDDBFEFF24FC289
:100D1000B307B50083C7870481C71D376FF08FC342
:100D2000C937EDBFEFF22FBFAA8413098500014434
:100D300091494A85092201C5A2852685C13F05043E
:100D40001374F40F4109E31634FF6FF00FC0EFF294
:100D50002FBE3289AE8490328C2201112A84680819
:100D6000CD2CB147B384F4027008CA850A851D2AC8
:100D70008A85314626942285EFF08FBE05616FF09B
:100D80006FBDEFF2EFBA2A84AE843285C545328951
:100D9000EFF0CFFEAA862686228581454D3FC945C4
:100DA0004A85EFF0AFFDAA86268622858545453720
:100DB000CD454A85EFF08FFCAA8626862285894597
:100DC0007937D1454A85EFF06FFBAA8626868D4597
:100DD0002285B53F6FF00FB8EFF28FB5AE84328940
:100DE000814501462A84452C1305C40001468145EE
:100DF0005D241305840101468145712C13054402CD
:100E000001468145492C4A86A68522859D3F6FF083
:100E10006FB4EFF2EFB12A842320050011050520FD
:100E2000232604006FF00FB31C420CC154C55CC1F3
:100E30005C421CC5828008413335A0008280930744
:100E4000803E1CC15CC182800CC150C18280EFF227
:100E50002FAE0545F129EFF06FB76FF0AFAFEFF2AE
:100E60002FAD2A8475282285DD376FF0AFAEEFF203
:100E70002FAC2E848C2141112A89B284C92001C54E
:100E80000C204A85D12068002686A285E9284101E8
:100E90006FF04FACEFF2CFA941116800E528410196
:100EA0006FF04FABEFF2CFA80C2241112A8428003B
:100EB000B284952A8C302A896800892A2A86CA85B4
:100EC0002285D12A228541016FF0CFA8EFF24FA6EB
:100ED00001112A846800AE848D220808B52A100802
:100EE0006C00228569372686A2854808653F480838
:100EF000692205616FF00FA6EFF28FA32E848C217B
:100F0000011128000D220C30AA84680001222A86D3
:100F1000A68508085D2A4245D24505616FF08FA37A
:100F200023000500A300050023010500A30105001F
:100F300023020500A30205002303050082802E95ED
:100F40000821134515008280EFF28F9E41112A84FB
:100F50006800AE84C5288545F92E269485471CA0D7
:100F600041016FF02F9FEFF2AF9C2E848C31011165
:100F70002800B28461282ACAA6856800BD200C20FA
:100F800085472ACE08083ECC79284C08ED2A056111
:100F90006FF04F9CEFF2CF99DC4141112E840A850E
:100FA000B2853EC299202AC6084085474C003EC4FF
:100FB000D92A41016FF00F9A2E85B2853686B9AED7
:100FC000EFF20F972E85B285A9263335A0006FF07A
:100FD0006F98F91593F5F50F8947114563E6B7004A
:100FE00093878181BE9588218280AE87982385472B
:100FF0008C316313F700F1BF954761456384F500B9
:101000004145828082800CA110B18280DD46056757
:1010100093F7F50F63F3B600DD47130787778A0769
:10102000BA978843828085678A059387877DAE97C4
:10103000884382800CA110B182809C211CA19C312C
:101040001CB1828085678A059387477EAE97884367
:1010500082800CA110B18280014681456DB7EFF20C
:101060002F8D10454C4141112A8481466800A937D3
:1010700085471CA041016FF0EF8DEFF26F8B10459B
:101080004C4141112A84854668003D372300040005
:1010900041016FF02F8C4CC110C5828008218280E5
:1010A000EFF20F895041AE860C414111680029379B
:1010B00041016FF02F8AEFF2AF8750410C4141118F
:1010C0006800FD3D41016FF0EF880CC150C1828086
:1010D000232005002322050082800CA110B134A139
:1010E000828038211C21D98F18311A0733E5E70097
:1010F000136505F81375F50F8280896793878780DC
:101100001CC12302050082804CA1828033F5C500FA
:10111000A94711813305F502BD892E951375F50F89
:101120008280EFF2EF802A84C93F89679387078323
:101130001CC06FF02F824C2113060003C1BF5C213D
:10114000314713D5570005893305E502BD8B3E9520
:101150001375F50F8280EFE2BFFD5C219D8381E76F
:10116000D93F6FE03FFFE13FEDBF4C211306000781
:1011700071BFEFE2FFFB2A84493789679387C785F0
:101180001CC06FE03FFD9845937707011378F70087
:1011900081C7DC413368F800944193F7F60FB1C37F
:1011A0001C410146054E930E80023D4F930F800473
:1011B0002143B315CE00B3F8B60063901503631E48
:1011C000D70F4CC993182600B3151F0193C5F5FF1F
:1011D000ED8FB3181801B3E7F8000506E31B66FCB2
:1011E0001CC14166130606F0758E49C237F6FF1F13
:1011F000032646701376060F7DE2371601409305ED
:1012000006806310B50C83A7C1808145054E930EFF
:1012100080023D4F930F80042143138685003316CF
:10122000CE00B3F8C60063101603631CD70B50C979
:101230009398250033161F011346F6FFF18FB3185C
:101240001801B3E7F8008505E39965FC5CC137F642
:10125000FF1F032646701376060F09EA3716014072
:10126000930506806313B50823A6F180C16763E583
:10127000F604504D81470543930E8002130F8004FE
:10128000214E93850701B315B300B3F8B6006391FF
:101290001503631AD7074CC993982700BD45B3952A
:1012A000150193C5F5FF6D8EB318180133E6C8001C
:1012B0008507E398C7FD50CD8280E315F7F10CC98F
:1012C00011B7930506C06315B50083A7818035BFAC
:1012D000E31DC5F2B707002083A747073DB75C4170
:1012E0002DB7E317F7F510C9A1B7930506C063152D
:1012F000B50023A4F1809DBFE31AC5F63706002090
:10130000232AF606A5B7E319E7F9B315F3000CD1C4
:1013100061B708456D8D3335A000828001CA93976F
:101320000501C1831CC9C1810CD182804CC9828056
:1013300023A6A182828099C5371702401C4FC98F0E
:101340001CCF8280B7170240984F1345F5FF798D67
:1013500088CF828001A097F1FF1F9381A15117418F
:101360000020130121CA170500001305656297F5D7
:10137000FF1F938525C91386C18263FAC5008322A6
:10138000050023A0550011059105E3EAC5FE13856C
:10139000C182938581836377B50023200500110501
:1013A000E36DB5FEFD42739002BC8D4273904280A6
:1013B000930280087390023097F2FFFF9382C2C4B9
:1013C00093E2320073905230EFE03FDC97F2FFFF80
:1013D0009382C2E373901234730020300111C1472D
:1013E0003EC41C4122CC32849C4F104206CE02C027
:1013F00002C202C68A868297924719470145998B95
:101400006395E700824705451CC0F24062440561D0
:10141000828019456303C700054582809707000055
:101420009387C7471CC151AC411122C406C62A8408
:10143000F53722852244B240A1454101FDA0630653
:10144000B50214211307A00281476381E6029C21A3
:10145000411106C66393E7008505EFE0DFD1B24096
:10146000933715003E854101828085473E85828005
:10147000CC414841411122C426C206C6B2843684FA
:101480007D3F11C5A1475CC4994704C05CC0B24010
:101490002244924441018280011122CC26CA4AC8CA
:1014A0004EC652C406CE032A4500B284B6893A8994
:1014B000468463100703CC435285513719C904C4CD
:1014C000F2406244D2444249B249224A0145056190
:1014D000828083A5490052859D377DD18547232091
:1014E000240144C05CC4E9BF011122CC26CA2E8469
:1014F000AA84CC4148414AC806CE32C636898137D3
:1015000019ED8D4763ED27011C4022856244324668
:10151000F2404249DC4BA685D24405618287F24005
:101520006244D24442490561828059AA970700006B
:101530009387C73C1CC16FF07FEE411122C406C6E1
:101540002A84ED3722852244B240B1454101F1BFE2
:101550006306B50214211307A00281476381E602E6
:101560009C21411106C66393E7008505EFE0BFC0EB
:10157000B240933715003E854101828085473E8504
:101580008280797162C4032C45004AD02E89CC42F6
:101590005EC6AA8B628522D426D24ECE52CC56CAC3
:1015A0005AC806D6B289B68A3A843E8B428AC68425
:1015B000453715CD80C023A23401634509024A9402
:1015C000854763138A009947DCC4B2502254925471
:1015D0000259F249624AD24A424BB24B224C01456F
:1015E00045618280F957E312F9FE8547F1BF631A1E
:1015F000440183254B006285A13F01C523A434012A
:10160000E9B703A58B00228722541C41B250B24B8C
:1016100003A3C701224CA68852889254624ADA87F3
:10162000D686424BD24A4E86CA85F2490259456156
:101630000283011122CC26CA06CE2A84AE84631D01
:10164000C700CC4248413AC632C436C2EFF05FF020
:1016500092462246324711E908446244F2401C4156
:10166000A685D2449C5305618287F2406244D244ED
:10167000194505618280011122CC26CA4AC84EC68E
:1016800006CEAA892E84B2843689EFF07FDE19ED6A
:1016900003A58900A28562441C41F240B2499C4FD7
:1016A000CA8626864249D24405618287F240624456
:1016B000D2444249B24905618280828001458280DC
:1016C00009A0AA8503A5018109A0D1CD83A7C5FFE3
:1016D000011122CC06CE1384C5FF63D307003E94CC
:1016E0002AC66920138701831C43324581EB2322DC
:1016F000040000C36244F2400561A5A8637DF400C4
:101700001040B306C4006396D7009443DC43B296FE
:1017100014C05CC0F9BF3E87DC4399C3E37DF4FE8F
:1017200014433306D700631F86001040B29614C3DB
:101730003306D700E390C7FC9043DC43B29614C352
:101740005CC34DBF6375C400B1471CC165B7104091
:10175000B306C4006396D7009443DC43B29614C02A
:101760005CC040C341BF82808280828013854183F8
:10177000E5BF13854183D5BF0100000002000000D2
:10178000040000000800000010000000200000001D
:101790004000000080000000000100000002000086
:1017A00000040000000800000010000000200000FD
:1017B0000040000000800000000001000000020066
:1017C00000000400000008000000100000002000DD
:1017D000000040000000800000080140000C0140B3
:1017E000001001400400000008000000100000008C
:1017F0004E366473313330323444617461450000D5
:10180000000000008C000020000000004E366473D1
:101810003133303234486F7572450000F8180000DB
:101820000C1800008C000020000000001C180000B4
:10183000561100004E36647331333032374D696EC5
:101840007574657345000000F81800003418000036
:101850008C00002000000000481800006A11000001
:101860004E31305F5F637878616269763131375F1E
:101870005F636C6173735F747970655F696E666FC7
:1018800045000000F81800006018000094000020D7
:1018900000000000841800001C1400002814000040
:1018A000BC160000BC160000E8140000DC130000A9
:1018B0007014000098140000121400004E31305FC4
:1018C0005F637878616269763132305F5F73695F38
:1018D000636C6173735F747970655F696E666F4581
:1018E00000000000F8180000BC1800008418000078
:1018F00000000000E41800002C1500003A1500005C
:10190000BC160000BC160000E8140000DC13000048
:1019100076160000821500003216000053743974E8
:101920007970655F696E666F00000000000000005E
:1019300000000000000000000000000000000000A7
:101940000000000000000000000000000000000097
:101950000000000000000000000000000000000087
:101960000000000000000000000000000000000077
:101970000000000000000000000000000000000067
:0C1980000000000000000000000000005B
:10198C000102030405060708010203040506070803
:10199C00000000006C1900004C1900002C1900000C
:1019AC00000000000000000000000000000000002B
:1019BC00000000000000000000000000000000001B
:1019CC00000000000000000000000000000000000B
:1019DC0000000000000000000000000000000000FB
:1019EC0000000000000000000000000000000000EB
:1019FC00006CDC0244444444444444444444444461
:101A0C00100000200000000048280000981800007A
:0C1A1C00F0170000981800001C190000D2
:00000001FF
