:040000006F20201934
:10000400000000000000000090210000902100008A
:10001400000000009021000000000000000000002B
:10002400902100009021000000000000000000006A
:10003400902100000000000090210000000000005A
:100044009021000090210000902100000000000099
:1000540090210000902100009021000090210000D8
:1000640090210000902100009021000090210000C8
:1000740090210000902100009021000090210000B8
:1000840090210000902100009021000090210000A8
:100094009021000090210000902100009021000098
:1000A4009021000090210000902100009021000088
:1000B4009021000090210000902100009021000078
:1000C4009021000090210000902100009021000068
:1000D4009021000090210000902100000000000009
:1000E400000000000000000000000000000000000C
:0C00F40000000000000000000000000000
:10010000397101436EC619A0397141536AC866CA74
:1001100062CC5ECE010019A0397101535AD056D27B
:1001200052D44ED601004AD826DA22DC06DE01007F
:1001300033016140828241114AC026C222C406C6F0
:1001400001008282B24D4101024D924C224CB24BD1
:1001500001004101024B924A224AB2490100410189
:10016000024992442244B2400100410182802A8324
:1001700009CA83830500230073007D1605038505E6
:100180006DFA82802A8311C62300B3007D16050311
:1001900065FE828010219421050585056313D60034
:1001A00075FA3305D6408280B71702409843B706E8
:1001B00000F99386F6F51367170098C3D8431367C1
:1001C0000705D8C3D843758FD8C3372702401443D7
:1001D000F19A14C3144393E6260014C3D84313774B
:1001E000F7F0D8C3D843D8C38280B7160240D842AC
:1001F000B70700209387070011833D8BBA979C2394
:10020000D4423777DC02130707C093F6060813F6CB
:10021000F70FB357F70099E2B357C702370700202B
:100220002320F7088280EFF21FF1130101CF28107D
:10023000EF1060642C104808912A681A892C6C1AF7
:1002400048081524701A2C10C8109D23701A2C1001
:10025000E811EF00406AF011CC100818B1290C1811
:10026000C808B129C808EF00903D93140501701A21
:100270002C104819EF00D003701A2C106818EF10DA
:1002800020136C18E81CEF10C022E81CEF1080252A
:10029000701A2C104801EF00F05AC808EF00F0392E
:1002A000AA8550010804EF00D039701A2C10080BF1
:1002B000EF00F0650C04F41C5019A800EF00B078B2
:1002C0004819EF009021935785002308A100418130
:1002D0002309A1000810A308F100EF00C073130563
:1002E0003102EF0040730C080810C180EF00406736
:1002F000E81CEF108034E81CEF10203815C5E81C0E
:10030000EF1040302AC6E81CEF1020302AC4E81C49
:10031000EF100030B2452246AA866808EF00E07070
:100320006C084819EF0030104819EF00101B935764
:1003300085002308A10041810C082309A1000810B1
:10034000A308F100EF00C0610810EF0040672C081F
:1003500015C90810EF00806A0144E30B94F82C08DB
:100360000818752E080BEF00B05E2ACE30086C0816
:10037000A800EF00B074050408044204EF00104127
:100380004180E1BF0810EF00A067F9B70CC182807F
:10039000EFF27FDA41112A84AE846800014681457C
:1003A000EF10007808407000A685EF102050410142
:1003B00045BBEFF25FD890318C2141112A8468004F
:1003C000EF10A07B08406C00EF10A05A410149BB20
:1003D000EFF27FD6B28490318C2141112A846800DB
:1003E000EF10007A08406C002686EF10C0534101E0
:1003F00085BBEFF25FD490318C2141112A846800D3
:10040000EF10500408406C00EF10A04C410189BB74
:10041000EFF27FD290318C2141112A846800EF10D5
:10042000300208406C00EF10E04C410115BB9C21EC
:100430006D476369F702EFF21FD009678A07130758
:100440004774BA979C4385058287993711BB9537C6
:10045000F5BF0546B53FDDBF0D46EDBF593FFDB7C2
:10046000453FEDB78280EFF21FCD2A89AE8401446B
:10047000268589246363A400E5B1A2852685E52A43
:10048000AA8505044A8565371374F40FD5B7EFF2D2
:100490009FCA2A84230005001D4681450505EF10EB
:1004A000006B85473CB01305440019468145EF10A9
:1004B000006A89477CA01305740015468145EF103A
:1004C00000698D471CB41305A40011468145EF1047
:1004D000006891475CA41305D40019468945EF10C4
:1004E000006795477CB41305040129468145EF1048
:1004F000006699473CA81305340139468145EF1041
:1005000000659D475CB81305640135468145EF10D1
:100510000064A1471CAC1305940131468145EF10DE
:100520000063A5473CBC1305C4012D468145EF106F
:100530000062A9477CAC1305F40105468145EF1024
:100540000061AD47A300F402130524020146814572
:10055000EF10E05FB1472302F402130554025D4639
:100560008145EF10C05EB547A303F4021305840272
:1005700059468145EF10A05DB9472305F4021305E4
:10058000B40205468545EF10805CBD47A306F40222
:100590001305E4021D468945EF10605BC14723083F
:1005A000F4021305140301468545EF10405AC54770
:1005B000A309F4021305440321468545EF10205991
:1005C000C947230BF402130574031D468545EF103C
:1005D0000058CD47A30CF4021305A4031946854522
:1005E000EF10E056D147230EF4021305D40315464D
:1005F0008545EF10C055D547A30FF4021305040439
:1006000039468945EF10A054D9472301F404130556
:1006100034043D468945EF108053DD47A302F404BE
:100620001305640421468145EF106052E14723041D
:10063000F4041305940425468145EF104051E54725
:10064000A305F4041305C40409468545EF102050A2
:10065000E9472307F4041305F40409468145EF1024
:10066000004FED47A308F4040D468145130524050A
:10067000EF10E04DF5B4ED4763F5B7001305150530
:1006800082808D47B385F5022E95828081470D4685
:10069000F1463387C7023308E500034808006315B5
:1006A000B80005073A9582808507E394D7FE1305C5
:1006B00025058280714582800CC150C18280EFF295
:1006C0009FA791461306600991452A84EF00207583
:1006D000228579B4EFF23FA62A844841AE84B285E0
:1006E00099240840A685ED289167938707E80100C3
:1006F000FD17F5FF0840A68511229307802501000C
:10070000FD17F5FFB1BC2E868545E9B72E868945D4
:10071000D1B72E868D457DBF2E86914565BFEFF200
:100720009FA12E84AC31AA84F93F2C202685F93F65
:100730000C302685F93F0C202685F93F15B4EFF2E1
:100740009F9F2A84AE843285A94532898137AA8544
:100750002685EF10802708C04CC04A85AD453D373F
:10076000AA852685EF10602608C44CC44A85B14589
:10077000313FAA852685EF10402508C84CC84A8518
:10078000B5452937AA852685EF10202408CC4CCC06
:100790006FF01F9DEFF23F9A2A8493040502228591
:1007A00081452104EF10E045E31B94FE6FF05F9B51
:1007B000EFF27F9841112A84AA8413090502268545
:1007C00032C62EC4A104EF100047A2453246E3987A
:1007D00024FF2285AD372285753F41016FF05F9878
:1007E000FD1593F7F50F0D4793F5F50F6373B700FC
:1007F0008D478E0785453E956F10A040FD1593F7F8
:10080000F50F0D4793F5F50F6373B7008D478E070E
:1008100081453E956F10E03EEFF2FF912A84AE8451
:100820003285A54532899D35AA852685EF10E019C8
:1008300008C04CC04A858145913DAA852685EF10A8
:10084000C01808C44CC44A8585458935AA852685C3
:10085000EF10A01708C84CC84A858945053DAA85F0
:100860002685EF10801608CC4CCC4A858D45393D45
:10087000AA852685EF10601508D04CD04A85914591
:100880003135AA852685EF10401408D44CD44A850A
:100890009545ED3BAA852685EF10201308D84CD846
:1008A0004A859945E533AA852685EF10001208DCB4
:1008B0004CDC4A859D45D93BAA852685EF10E01082
:1008C00028C06CC04A85A145D133AA852685EF1082
:1008D000C00F28C46CC46FF0BF88EFF2DF852A8494
:1008E00093040505228581452104EF108031E31B27
:1008F00094FE6FF0FF86EFF21F8441112A84AA84D0
:1009000013090505268532C62EC4A104EF10A032B6
:10091000A2453246E39824FF2285FD3D2285753F9E
:1009200041016FF0FF83EFF22FFF25472A89A5478A
:100930006363B700AE8793F4F70F0144A949931797
:1009400034003305F9009377F40F85456383F40091
:1009500081450504EF10E02AE31334FF6FF08FFFA9
:10096000EFF26FFD13043500AE840D46A285EFF063
:100970001F800D46A6852285EFF06FFF6FF04FFEBA
:100980005C2118313385E7401375F50F7D1513355C
:100990001500828018213C31998F93F7F70F054796
:1009A000639DE7001C3158213385E7401375F50F2F
:1009B000130555FC13351500828001458280EFF246
:1009C0008FF741112A84B52009E5014541016FF0F7
:1009D0002FF9930534002E852EC6A1287DD5B2456A
:1009E00022857D2065F503070400830734002285F6
:1009F0006314F7007137D9BF713FC9BF0D058DA0D2
:100A000085A0A94733F7F502B3D5F50218A1B3F5D0
:100A1000F5020CB18280FD571CA11CB13CA1828063
:100A20000CA110B12301050082800CA110B134A1EA
:100A3000828083062500AA8763C206020307150089
:100A40000145634E07009023DD4763EAC700930723
:100A5000B00363C6D7001325C70382800145828097
:100A6000EFF26FED2E8483051500AA842285513F95
:100A7000838504001305240069376FF06FEE0305CA
:100A80000500828003051500828003052500828011
:100A90000307050083870500631AF70003051500A7
:100AA000838715001D8D13351500828001458280D6
:100AB000EFF28FE62A84AE843289130AC4004924F7
:100AC0004A86A68552855524930984014A86A685BF
:100AD0004E85C9249307440200D4232644032328C7
:100AE00034035CD801006FF0EFE6EFF2CFE42A8424
:100AF0000845E12C48408145C92C01000100010056
:100B0000010048408545D124010001000100010099
:100B10006FF00FE5EFF22FE22E8485892A899D443C
:100B2000E9370580FD14937514004A8593F4F40F9A
:100B30006D3FE5F86FF0CFE2EFF2EFDF2A84484136
:100B40002E898145B284512408408545BD2CD1476A
:100B50000100FD17F5FF0844BD2C4A85EF108020E9
:100B6000AA852285453F2685EF102022AA85228569
:100B7000553708408145912C6FF08FDEEFF2AFDBE7
:100B800041112A842800EF10C02481464800014604
:100B90009145EF10A01C30004C0013058402693F02
:100BA00041016FF0EFDBEFF20FD92A842E85EF00C1
:100BB0004076AA852285D9376FF08FDAEFF2AFD76A
:100BC00041112A842800EF10C028814648000146C0
:100BD0008945EF10A01830004C0013058402A93F8E
:100BE00041016FF0EFD7EFF20FD52A842E85EF0089
:100BF000A074AA852285D9376FF08FD6EFF2AFD3D4
:100C000041112A842800EF10C02781464800014680
:100C10008145EF10A01430004C0013058402293FD9
:100C200041016FF0EFD3EFF20FD12A842E85AE840D
:100C3000B9359375F50F228591372685A1359375C2
:100C4000F50F2285A53F268589359375F50F2285F9
:100C500075376FF0EFD0814555B7EFF2EFCB2A84AF
:100C600048412E898145B2898D2208408545D1446D
:100C7000A92A0100FD14F5FC08441D4AA92A4A8549
:100C8000EF10400EAA852285713508440149B5222E
:100C9000484081451D2A010001000100010008446F
:100CA000052AB317950093F7F70F33E92701639BE4
:100CB0004401CA854E85EF10800D084081453122E0
:100CC0006FF04FC94840854509220100010001002D
:100CD00001001379F90F850465BFEFF2CFC5797173
:100CE0002A840810EF10800D2810EF102015080836
:100CF000854601469145EF10600685464808014645
:100D00008945EF10A0051305840210100C082AC6AF
:100D1000A937324530104C0889370810EF10E00F22
:100D20002AC62810EF10E010B2452A862808CD39CF
:100D30008347A101A884C2075D8D45616FF04FC252
:100D4000EFF26FBF41112E84AA84B9453285EFF0CE
:100D5000FF93AA852285EF0050472A86AE86268516
:100D6000A285B12841016FF0AFBFEFF2CFBC4111B6
:100D70002E84AA84BD453285EFF05F91AA85228535
:100D8000EF00B0442A86AE862685A2850D28410153
:100D90006FF00FBDEFF22FBA41112E84AA84C14526
:100DA0003285EFF0BF8EAA852285EF0010422A8699
:100DB000AE862685A285212041016FF06FBA4111D0
:100DC0000CC150C114C54101828011056F007063D0
:100DD00011056F009064EFF20FB641112A840146AD
:100DE00068008145EF00D05308407000930544002F
:100DF000EF00703241016FF0AFB6EFF2CFB34111A7
:100E00002A84054668008545EF009051084070002F
:100E100093054400EF00303041016FF06FB4930749
:100E2000803E50C13356F6020CC1B295B386D5024E
:100E3000B3D7D70214C55CC5828008458280484577
:100E40008280EFF24FAF2A840CC150C19304850019
:100E5000130985042685C104C12EE39D24FF2324A4
:100E600004042326040423280404232A0404010080
:100E7000232C0404232E0404232004062322040626
:100E80000100232404062326040623280406232A1B
:100E900004060100232C04066FF08FACB307B500E5
:100EA00023840704B147B385F50248412E956F00AE
:100EB000904E93972500AA97F8471441158F6354D5
:100EC000E000F8C78280B147B385F50248412E950E
:100ED0006F00504EEFF22FA6B147B387F5022A8478
:100EE0004841AE843E95EF00104B93974400A29783
:100EF000D8478A04269478C49C4B7CCC6FF04FA6CC
:100F000093962500AA96F04E032805003306064165
:100F10006354C000F0CE8280EFF2EFA1F056139739
:100F20004500B307E5007D16F0D698478546630770
:100F3000D70089476305F7006FF08FA219C2593FA8
:100F4000E5BF23A40700CDBFEFF2EF9EB147B38703
:100F5000F5022A84484141112EC63E95EF00D04744
:100F6000B24511C52285B13741016FF06F9F2285CF
:100F7000413FDDBFEFF22F9CB307B50083C7870465
:100F800081C7293F6FF0CF9DC137EDBFEFF2CF98FA
:100F9000AA8413098500014491494A854D2401C55D
:100FA000A2852685C13F05041374F40F4109E31699
:100FB00034FF6FF02F9AEFF20F983289AE8490329F
:100FC0008C2201112A846808EF00303BB147B384BA
:100FD000F4027008CA850A85EF0030178A85314609
:100FE00026942285EFF0AF9805616FF06F97EFF2CE
:100FF0008F942A84AE843285C5453289EFF00FE99B
:10100000AA862686228581457D37C9454A85EFF027
:10101000EFE7AA86268622858545713FCD454A851C
:10102000EFF0CFE6AA862686228589456937D14525
:101030004A85EFF0AFE5AA8626868D452285A53F35
:101040006FF00F92EFF22F8FAE8432898145014607
:101050002A84EF0010381305C40001468145EF00D3
:1010600050371305840101468145EF009036130582
:10107000440201468145EF00D0354A86A685228587
:10108000BD376FF0EF8DEFF20F8B2E84B2848C2280
:10109000903241114800EF00B02E4C002685EF0041
:1010A00050102AC42EC622852C00092241016FF05F
:1010B0002F8BEFF24F882A84AE843285D545328952
:1010C000EFF0CFDCAA862686A28522856D3FD94522
:1010D0004A85EFF0AFDBAA8626869305C4012285F8
:1010E0005D37DD454A85EFF06FDAAA8626869305DF
:1010F00084032285493FE1454A85EFF02FD9AA862E
:101100002686930544052285BD3F6FF06F85EFF27B
:101110008F82AE8432899145130650062A84A52019
:101120001305C401130650069145B1281305840325
:1011300013065006914581281305440513065006F1
:10114000914591204A86A6852285A5376FF04F816B
:10115000EFE29FFC4111AA895D282A841385C90109
:101160007D202A89138589035D20AA84220913859D
:1011700049057128C20433642401458C6205418D00
:1011800041016FE03FFDEFE21FFB2A842E89B2840C
:10119000EF00D0242324240144C423280400232A5C
:1011A00004000100231C04006FE09FFB9C411CC154
:1011B000DC415CC101008280AA8723280500232A24
:1011C0000500230C0500083D010005476315E500F7
:1011D000A38C0700828001458280184954494C4500
:1011E00005078506054618C954C910BDAA87638E30
:1011F000B60014450145636BD700982F23A807005C
:10120000114509E790AF094582800D458280EFE2E4
:101210009FF22A84EF00901D09C522857D3F6FE073
:101220003FF42285513FE5BFEFE2FFF02A842320FF
:10123000050011055528232604006FE07FF20841C0
:101240003335A00082800CC150C114C5828089470B
:101250006393F502EFE23FEE41112A84B285680004
:10126000368641286800612848406C00EFF0BF9343
:1012700041016FE0FFEE828089476393F502EFE260
:101280009FEB41112A84B285680036866920680088
:10129000492848406C00EFF01F9541016FE05FEC7A
:1012A000828089476395F50048416FF0DF9A82801C
:1012B00089476394F500084555A68280EFE2BFE7B1
:1012C0002E84B28434228C2130322A8949379420EA
:1012D00090300C304A854D372C204A85D9372C3038
:1012E0004A85F9376FE0DFE79307803E1CC15CC198
:1012F0008280A947B385F5022E9610A182801C2119
:101300005D47850793F7F70F6373F70081471CA1CB
:10131000828008218280A947B385F5022E9610A10C
:1013200082801C211307B003850793F7F70F6373BF
:10133000F70081471CA182800821828085456F00CB
:10134000500C81456F00F00B21056F00D01A21056C
:101350006F003019EFE23FDE41112A84AE843285FE
:10136000E545EFF0AFB210310C216800EF00207EB0
:101370006C002685EF00606508C04CC041016FE03D
:101380003FDEEFE25FDB411171662E84130606201B
:10139000AA8485452800EF00300B2C002285ED2122
:1013A00085452285EF00E06488C441016FE05FDB82
:1013B000EFE27FD841112A84AE8432C6EF00B00735
:1013C00013058400EF0090113246A6852285EFF0C8
:1013D0007FF8A6852285753741016FE07FD8EFE25F
:1013E0009FD5130485002285EF00D0146DFD6FE0BA
:1013F0003FD7EFE25FD4AA842E84130985008305CA
:10140000040099E16FE0DFD593F5F50F4A85EF0011
:10141000D00F2685E9370504DDB721056F00D0120E
:10142000EFE27FD121052E84EF00900F9315850107
:10143000E185228529286FE0BFD213060008814587
:1014400023000508A30005086FE0DFD3FDB783473D
:1014500005083307F5000CA335476397E5000347FC
:1014600015080507A300E5081307E0076385E700F3
:1014700085072300F5088280034515087515133587
:10148000150082808280834705081D476371F7023B
:10149000AA978386E7FF1307B0040145639AE60025
:1014A0000385D7FF130515FB133515008280014511
:1014B0008280EFE25FC82A840CC123220500210547
:1014C000EFF0DFF8856523050408938505E1130532
:1014D000C4087D226FE0DFC8084189659385457B9C
:1014E0006FF03FF1EFE25FC3130985002A844A855C
:1014F000EFF0BFF4084023220400EFF03FE4B727E9
:10150000B700938707B00100FD17F5FF084081443D
:1015100093094006EFF05FE3084089659385857C79
:10152000EFF03FED4A85EFF03FF505E1638F3401C1
:101530000840EFF09FEE05C90840CA858144EFF0EE
:101540003FEE4A85EFF05FF365D54A85EFF0BFF3D4
:1015500019CD85475CC02285EFF01FF80840EFF0F9
:101560001FDF6FE03FBF850493F4F40F65BF0840B1
:10157000EFF03FDDE5B7EFE23FBA13098500411117
:101580002A844A85EFF07FEB0840814493094006A6
:10159000EFF09FDB084089659385057DEFF07FE5DF
:1015A0004A85EFF07FED15C908408544EFF03FDA3A
:1015B0004A8544C0EFF01FEDAA856800E520930638
:1015C000240913061409930504096800052C19C1A0
:1015D0002305940841016FE0FFB70840E38634FD1E
:1015E000EFF0BFE301CD0840CA85EFF07FE34A8505
:1015F000EFF09FE855F908408144DDB7850493F486
:10160000F40F79BF034505098280034515098280DF
:10161000034525098280EFE21FB29304C508230524
:1016200005082A842685A5202685B52009C5268596
:10163000A12889475CC06FE0BFB2EFE2DFAF5C4139
:1016400005476387E70009476387E7006FE05FB1FD
:10165000EFF07FFCE5BFEFF01FF2CDBF5C4189CF1B
:10166000EFE27FAD2A84230505081305C508292864
:1016700089475CC06FE0DFAE82800345A5088280A9
:101680000EA12311050082802311050082803E21D6
:1016900085073EA182803E211A213385E74013351C
:1016A000150082800CC182801441014701453546F6
:1016B0008545B387A6008387070099E301458280AB
:1016C0006398C7006315B7001375F50F828005474F
:1016D0000505C5B799E1014582801C411387F5FFD7
:1016E000AE97838707006395C70013F5F50F8280D7
:1016F000BA85CDB7EFE23FA42E848C2141111306A9
:101700000002AA842316010023070100EFF09FFCCA
:1017100008A09C403E95830715005C868307250042
:101720006800DC86EF00D0601375F50F41016FE0B3
:101730003FA3EFE25FA02E848C2141111306A0038A
:10174000FD1593F5F50FAA84231601002307010068
:10175000EFF05FF808A09C403E95830715005C867B
:10176000830725006800DC86EF00905C1375F50F99
:1017700041016FE0FF9EEFE21F9C2E848C214111FE
:101780001306A003AA842316010023070100EFF02B
:101790007FF408A09C403E95830715005C86830774
:1017A00025006800DC86EF00B0581375F50F410185
:1017B0006FE01F9BEFE23F984111B28413060002D5
:1017C0002A8402C423060100EFF0DFF088A01C4049
:1017D0003E95830715005C8483072500DC840100A7
:1017E000830735005C85830745002800DC85EF0012
:1017F00030544205418141016FE09F96EFE2DF9155
:1018000023800600230006004111238005002A845E
:10181000AE843289B689EFF03FE909E5014541011F
:101820006FE05F93AA851306F1002285EFF09FF821
:101830009307207BE304F5FE9305F1002285EFF08A
:101840009FF32380A9009305F1002285EFF07FEE3E
:101850002300A9009305F1002285EFF0BFE988A0DD
:10186000054575BFEFE23F8D0545EF00C07EEFE017
:10187000DF976FE0FF8EEFE21F8C2A8479222285AA
:10188000EFF05FFE6FE0DF8DEFE2FF8A2E848C21A8
:101890004111AA84452201C50C202685C922504049
:1018A0000C2068006D2641016FE09F8BEFE2BF883E
:1018B0002E848C2141112A89B284852A01C50C20ED
:1018C0004A85B52A68002686A285552A41016FE01F
:1018D0003F89EFE25F8641112A84AE846800154695
:1018E00081453D2C7000A6852285EFF03FFC41012B
:1018F0006FE01F87EFE23F8441112A84AE846800C5
:1019000005468545312C7000A6852285EFF01FFA2B
:1019100041016FE0FF84EFE21F82411168007922EC
:1019200041016FE0FF83EFE21F8141112A8428000B
:10193000B2843D24A6856800992C70002C00228575
:10194000EFF0DFF641016FE0BF81EFE2CFFE0C2246
:1019500041112A842800B284E5228C302A8968004B
:10196000D9222A86CA852285AD24228541016FE0CD
:101970002FFFEFE24FFC01112A846800AE84D92AC0
:101980000808112410086C002285EFF03FF226862B
:10199000A2854808EFF07FFB4808292C05616FE01D
:1019A0002FFCEFE24FF92E848C2101112800492AE7
:1019B0000C30AA846800852A2A86A6850808252472
:1019C0004245D24505616FE0AFF9EFE2CFF62E84D4
:1019D0008C2101112800AD220C30AA846800A122BC
:1019E0002A86A6850808A9244245D24505616FE0EC
:1019F0002FF7EFE24FF441112800C924AA856800AF
:101A0000E12C324541016FE0AFF523000500A30052
:101A1000050023010500A3010500010023020500C4
:101A2000A30205002303050082802E95082113459B
:101A3000150082802E952831134515008280EFE233
:101A40008FEF41112A846800AE840D228545EF0096
:101A5000A064269485471CA041016FE06FF0EFE27F
:101A60008FED41112A846800AE8485248545EF00FE
:101A70008064269485473CB041016FE06FEEEFE251
:101A80008FEB2E848C3101112800B28469282ACA78
:101A9000A6856800BD200C2085472ACE08083ECCCC
:101AA00045204C08212105616FE08FEBEFE2AFE8A4
:101AB000DC4141112E840A85B2853EC299202AC696
:101AC000084085474C003EC4D52641016FE04FE9F0
:101AD0002E85B2853686B5A3EFE2EFE52E85B28579
:101AE000A12B3335A0006FE0AFE7F91593F5F50FA3
:101AF0008947114563E6B70093878181BE958821A8
:101B00008280AE87982385478C316314F7006FF08D
:101B1000DFFD954761456384F50041458280828001
:101B20000CA110B18280DD46096793F7F50F63F3CE
:101B3000B600DD471307477E8A07BA97884382803D
:101B40008D678A0593874784AE97884382800CA16E
:101B500010B182809C211CA19C311CB101008280AB
:101B60009C211CA19C311CB1010082808D678A05DB
:101B700093870785AE97884382800CA110B182803D
:101B80000CA110B18280014681456FF07FF92E864D
:101B900085456FF0FFF8EFE20FDA10454C41411137
:101BA0002A8481466800EFF0BFF285471CA04101FE
:101BB0006FE00FDBEFE22FD810454C4141112A8432
:101BC00085466800EFF0DFF02300040041016FE07C
:101BD0002FD94CC110C582800821828023200500A6
:101BE0002322050082800CC150C18280EFE2AFD475
:101BF00050410C4141116800EFF01FEE41016FE0D0
:101C00002FD6EFE24FD35041AE860C414111680010
:101C1000EFF01FEC41016FE0AFD4EFE2CFD15041C4
:101C20000C4141116800EFF03FEB41016FE04FD3F1
:101C30000CC150C182802320050023220500828030
:101C40006FF0FFF06FF0BFF00CA150C18280EFE2A7
:101C50008FCE0111B14702CC680032C8FC8502CAA0
:101C600002CE0100A1280C08B52105616FE04FCF1D
:101C70002E858145FDA12E858545E5A12E85B28560
:101C8000DDA9EFE24FCB2E85DD291375F50F6FE04F
:101C90002FCDEFE24FCA2E8593050008ED211335B5
:101CA00015006FE0EFCBEFE20FC92E859305000220
:101CB000D9297D15133515006FE08FCA8D678A0508
:101CC0009387C785AE97884382808D678A059387FF
:101CD000C786AE97884382800CC18280232005008E
:101CE0008280EFE24FC50C4141116800EFF05FF8D0
:101CF00041016FE0EFC6EFE20FC40C4141116800F3
:101D0000EFF07FF741016FE0AFC5EFE2CFC22E8663
:101D10000C4141116800EFF07FF641016FE04FC4C4
:101D2000EFE26FC10C4141116800EFF09FF54101F6
:101D30006FE00FC3EFE22FC00C4141116800EFF0DC
:101D40005FF541016FE0CFC1EFE2EFBE0C41411101
:101D50006800EFF05FF541016FE08FC00CA110B19A
:101D600034A1828038211C21D98F18311A0733E51C
:101D7000E700136505F81375F50F82808D6793876B
:101D800047891CC1230205008280482182804CA122
:101D90008280A94733D5F502B3F5F50212054D8DC2
:101DA0001375F50F828033F5C500A94711813305FE
:101DB000F502BD892E951375F50F8280EFE2AFB75E
:101DC0002A84EFF0BFFB8D679387C78B1CC06FE041
:101DD0002FB9EFE24FB641112A842EC6EFF01FFA59
:101DE000B2458D679387C78B1CC02285EFF07FFAC1
:101DF00048A041016FE0CFB64C21130600036FF0FD
:101E00009FFA5C21314713D5570005893305E50258
:101E1000BD8B3E951375F50F8280EFE2CFB15C214B
:101E20009D8389E7EFF05FFD6FE08FB3EFF07FFDFB
:101E3000E5BF4C21130600076FF0FFF6EFE2AFAFEE
:101E40002A84EFF0BFF38D679387878E1CC06FE005
:101E50002FB1EFE24FAE41112A842EC6EFF01FF2F0
:101E6000B2458D679387878E1CC02285EFF07FF285
:101E700048A041016FE0CFAE4C21130600076FF080
:101E80009FF2EFE24FAB41112A842EC6EFF01FEF15
:101E9000B2458D674420938747911CC02285EFF09F
:101EA0005FEFC98C44A041016FE08FAB98459377F9
:101EB00007011378F70081C7DC413368F8009441CB
:101EC00093F7F60FB1C31C410146054E930E8002F5
:101ED0003D4F930F80042143B315CE00B3F8B600F5
:101EE00063901503631ED70F4CC993182600B315D2
:101EF0001F0193C5F5FFED8FB3181801B3E7F80084
:101F00000506E31B66FC1CC14166130606F0758ED0
:101F100049C237F6FF1F032646701376060F7DE28F
:101F200037160140930506806310B50C83A7C18066
:101F30008145054E930E80023D4F930F800421434F
:101F4000138685003316CE00B3F8C600631016035F
:101F5000631CD70B50C99398250033161F011346F5
:101F6000F6FFF18FB3181801B3E7F8008505E39980
:101F700065FC5CC137F6FF1F032646701376060F1B
:101F800009EA37160140930506806313B50823A6B6
:101F9000F180C16763E5F604504D81470543930E18
:101FA0008002130F8004214E93850701B315B300FF
:101FB000B3F8B60063911503631AD7074CC9939819
:101FC0002700BD45B395150193C5F5FF6D8EB31878
:101FD000180133E6C8008507E398C7FD50CD82801D
:101FE000E315F7F10CC911B7930506C06315B500E9
:101FF00083A7818035BFE31DC5F2B707002083A703
:1020000047083DB75C412DB7E317F7F510C9A1B7F5
:10201000930506C06315B50023A4F1809DBFE31AA4
:10202000C5F6370600202322F608A5B7E319E7F91D
:10203000B315F3000CD161B708456D8D3335A000A1
:10204000828001CA93970501C1831CC9C1810CD14B
:1020500082804CC9828023A6A18282803777DC02ED
:10206000130707C018C1371602405442B7070020B3
:10207000938707019182BD8AB6979C23544293F5BA
:10208000F70F93F60608B357F70099E2B357B70274
:102090005CC11CC55CC5828099C5371702401C4FC6
:1020A000C98F1CCF8280B7170240984F1345F5FFA8
:1020B000798D88CF828099C5371702405C4FC98FD0
:1020C0005CCF8280B7170240D84F1345F5FF798D5A
:1020D000C8CF8280EFE22F861629F577FD17FD8E97
:1020E000FE21DA254111D58F1EA95625FD7793874C
:1020F000379FFD8EDE212A84AE84D58F9625D58F1D
:10210000B625D58F5EA55E29C207C18393F7F7CFA9
:10211000D98F5EA90A85EFF07FF4B7470140938716
:102120000780631EF402B2476547B387E702984011
:10213000930640060A07B3D7E70233D7D702B3F7AF
:10214000D7021207920793872703B3D7D702BD8B15
:10215000D98FC207C1831EA441016FE06F80A247DF
:10216000E1B75E2589C50967D98F5EA58280797739
:102170007D17F98FDDBF93F5F51F4EA182804A21AF
:102180001375F51F82800A216D8D3335A000828082
:1021900001A097E1FF1F9381E16E17310020130129
:1021A00061E6171500001305659A97E5FF1F9385F3
:1021B00065E51386C18263FAC5008322050023A06A
:1021C000550011059105E3EAC5FE1385C18293858B
:1021D00081836377B500232005001105E36DB5FE0B
:1021E000FD42739002BC8D4273904280930280083E
:1021F0007390023097E2FFFF938202E193E2320094
:1022000073905230EFD05FFA97E2FFFF9382E201C2
:1022100073901234730020300111C1473EC41C4139
:1022200022CC32849C4F104206CE02C0010002C272
:1022300002C68A868297924719470145998B639512
:10224000E700824705451CC0F24062440561828078
:1022500019456303C70005458280970700009387EF
:10226000676F1CC1D1A4411122C406C62A84EFF0B5
:10227000DFFE22852244B240A145410109A2630646
:10228000B50214211307A00281476381E6029C2155
:10229000411106C66393E7008505EFD0BFEFB2405A
:1022A000933715003E854101828085473E858280B7
:1022B000CC414841411122C426C206C6B2843684AC
:1022C000EFF0FFFB11C5A1475CC4994704C05CC097
:1022D000B24022440100924441018280011122CC8B
:1022E00026CA4AC84EC6010052C406CE032A45007B
:1022F000B284B6893A89468463120703CC43528577
:10230000EFF0FFF701CD04C4F2406244D244010073
:102310004249B249224A01450561828083A54900AC
:102320005285EFF0DFF56DD185472320240144C0AD
:102330005CC4D9BF011122CC26CA2E84AA84CC4108
:1023400048414AC806CE010032C63689EFF03FF355
:1023500005E18D4763EE27011C4022856244324629
:10236000F24042490100DC4BA685D24405618287D8
:10237000F2406244D244424901000561828045AA8C
:1023800097070000938707631CC16FF01FED411191
:1023900022C406C62A84EFF0BFFE22852244B24042
:1023A000B14541016FF0BFFD6306B502142113076B
:1023B000A00281476381E6029C21411106C6639316
:1023C000E7008505EFD01FDDB240933715003E854D
:1023D0004101828085473E858280797162C4032CE9
:1023E00045004AD02E89CC425EC6AA8B628522D493
:1023F00026D24ECE52CC010056CA5AC806D6B28951
:10240000B68A3A843E8B428AC684EFF0FFF921C136
:1024100080C023A23401634709024A9485476313AD
:102420008A009947DCC4B2502254925401000259E8
:10243000F249624AD24A0100424BB24B224C01455A
:1024400045618280F957E310F9FE8547E1BF631BC0
:10245000440183254B006285EFF01FF501C523A4DD
:102460003401D1B703A58B00228722541C41B250FE
:10247000B24B010003A3C701224CA6885288925494
:10248000624ADA87D686424BD24A4E86CA85F249DC
:10249000025945610283011122CC26CA06CE2A8444
:1024A000AE84631EC700CC4248413AC632C4010024
:1024B00036C2EFF07FEF92462246324719E90844D0
:1024C0006244F2401C410100A685D2449C53056140
:1024D0008287F2406244D24419450561828001112D
:1024E00022CC26CA4AC84EC6010006CEAA892E842E
:1024F000B2843689EFF0DFDB05E103A58900A28510
:1025000062441C41F240B24901009C4FCA862686B3
:102510004249D24405618287F2406244D244424932
:102520000100B2490561828082800145828021A03C
:1025300029468145DDA2AA8503A5018109A0D9CD3F
:1025400083A7C5FF011122CC06CE1384C5FF63D338
:1025500007003E942AC6F12A138701831C433245A3
:1025600089EB2322040000C36244F24001000561AC
:10257000E9A2637DF4001040B306C4006396D7005F
:102580009443DC43B29614C05CC0F1BF3E87DC4389
:1025900099C3E37DF4FE14433306D700631F86001E
:1025A0001040B29614C33306D700E39FC7FA904396
:1025B000DC43B29614C35CC345BF6375C400B14726
:1025C0001CC15DB71040B306C4006396D7009443A6
:1025D000DC43B29614C05CC040C379B7828041111D
:1025E00006C622C49307400263EBD70005472A8F33
:1025F000AE87170300001303333F639AE6002D22D2
:10260000D9471CC10145B240224441018280BE88A5
:102610009823850733056700034805001378880071
:10262000E31708FE1305D0026311A7069823854F10
:1026300093872800A5E6930600036304D708A946FC
:10264000B7080080FD18FE98B3F2D8020143014597
:10265000A543E54E7D5433DED802130807FD63EA37
:10266000030742876355D708630D83007D53636A70
:10267000AE006314AE0063C6E20005433385A602D4
:102680003A95850703C7F7FFC9BF1305B002814F0D
:10269000E312A7FA98239387280069BF4145E39185
:1026A000A6FA13050003E31DA7F803C807001305E6
:1026B00080051378F80DE315A8F89833C14689070B
:1026C00041B703C8070013058005A1461378F80D2C
:1026D000DDB71308F7FB63E50E01130797FC59B745
:1026E0001308F7F963E50E01130797FAA5BF7D57A5
:1026F000631BE300130720022320EF00468501D669
:102700009385F7FF09A863840F003305A040E30C0D
:1027100006EEE31703FE0CC2FDB5B2862E86AA852F
:1027200003A501816FF0BFEB03A501818280828048
:102730008280138541836FF09FFF138541836FF083
:102740003FFF00004A0400004A0400004A04000061
:102750004A0400004A0400004A0400004A04000041
:102760004A0400004A0400004A0400004A04000031
:102770004A0400004A0400004A0400004A04000021
:102780004A0400004A0400004E0400004E04000009
:102790004E0400004E0400005204000052040000E9
:1027A00058040000580400004A0400005C040000C3
:1027B0006004000041542B434950534E545043464B
:1027C000473D312C330D0A0041540D0A0000000032
:1027D00041542B434950534E545054494D453F0D9D
:1027E0000A000000010000000200000004000000D8
:1027F0000800000010000000200000004000000061
:102800008000000000010000000200000004000041
:102810000008000000100000002000000040000040
:102820000080000000000100000002000000040021
:102830000000080000001000000020000000400020
:102840000000800000080140000C01400010014021
:1028500004000000080000001000000000380140E3
:102860000044004000480040004C00400040000090
:102870000000020000000400000008004E366473EF
:10288000313330323444617461450000000000008F
:102890009C000020000000004E366473313330325B
:1028A00034486F7572450000B02900009828000078
:1028B0009C00002000000000A82800001A1E000054
:1028C0004E36647331333032374D696E75746573CB
:1028D00045000000B0290000C02800009C00002036
:1028E00000000000D4280000321E00004E36647341
:1028F00031333032375365636F6E647345000000C7
:10290000B0290000EC2800009C000020000000001E
:1029100000290000781E00004E31305F5F63787838
:10292000616269763131375F5F636C6173735F74C5
:102930007970655F696E666F45000000B029000020
:1029400018290000A4000020000000003C2900001D
:102950005A220000662200002A2500002A250000D5
:102960003423000018220000B0220000DC22000006
:10297000502200004E31305F5F6378786162697683
:102980003132305F5F73695F636C6173735F747959
:1029900070655F696E666F4500000000B029000039
:1029A000742900003C290000000000009C29000060
:1029B000802300008E2300002A2500002A25000025
:1029C0003423000018220000DE240000DA23000077
:1029D00096240000537439747970655F696E666F70
:1029E0000000000000202020202020202020282877
:1029F00028282820202020202020202020202020BF
:102A000020202020208810101010101010101010FE
:102A1000101010101004040404040404040404102E
:102A200010101010101041414141414101010101BC
:102A30000101010101010101010101010101010186
:102A40001010101010104242424242420202020292
:102A50000202020202020202020202020202020256
:102A60001010101020000000000000000000000006
:102A70000000000000000000000000000000000056
:102A80000000000000000000000000000000000046
:102A90000000000000000000000000000000000036
:102AA0000000000000000000000000000000000026
:102AB0000000000000000000000000000000000016
:102AC0000000000000000000000000000000000006
:102AD00000000000000000000000000000000000F6
:102AE00000000000000000000000000000000000E6
:102AF00000000000000000000000000000000000D6
:102B000000000000000000000000000000000000C5
:102B100000000000000000000000000000000000B5
:102B200000000000000000000000000000000000A5
:102B30000000000000000000000000000000000095
:082B400000000000000000008D
:102B48000102030405060708010203040506070835
:102B58000102030405060708010203040506070825
:102B680000000000282B0000082B0000E82A0000C5
:102B7800000000000000000000000000000000004D
:102B8800000000000000000000000000000000003D
:102B9800000000000000000000000000000000002D
:102BA800000000000000000000000000000000001D
:102BB800000000000000000000000000000000000D
:102BC800006CDC0244444444444444444444444483
:102BD80020000020000000004828000050290000C4
:0C2BE8007C28000050290000D4290000C7
:00000001FF
