:040000006F2010213C
:1000040000000000000000000E2A00000E2A00007C
:10001400000000000E2A00000000000000000000A4
:100024000E2A00000E2A000000000000000000005C
:100034000E2A0000000000000E2A0000000000004C
:100044000E2A00000E2A00000E2A00000000000004
:100054000E2A00000E2A00000E2A00000E2A0000BC
:100064000E2A00000E2A00000E2A00000E2A0000AC
:100074000E2A00000E2A00000E2A00000E2A00009C
:100084000E2A00000E2A00000E2A00000E2A00008C
:100094000E2A00000E2A00000E2A00000E2A00007C
:1000A4000E2A00000E2A00000E2A00000E2A00006C
:1000B4000E2A00000E2A00000E2A00000E2A00005C
:1000C4000E2A00000E2A00000E2A00000E2A00004C
:1000D4000E2A00000E2A00000E2A00000000000074
:1000E400000000000000000000000000000000000C
:0C00F40000000000000000000000000000
:10010000397101436EC619A0397141536AC866CA74
:1001100062CC5ECE010019A0397101535AD056D27B
:1001200052D44ED601004AD826DA22DC06DE01007F
:1001300033016140828241114AC026C222C406C6F0
:1001400001008282B24D4101024D924C224CB24BD1
:1001500001004101024B924A224AB2490100410189
:10016000024992442244B2400100410182802A8324
:1001700009CA83830500230073007D1605038505E6
:100180006DFA82802A8311C62300B3007D16050311
:1001900065FE828010219421050585056313D60034
:1001A00075FA3305D6408280B71702409843B706E8
:1001B00000F99386F6F51367170098C3D8431367C1
:1001C0000705D8C3D843758FD8C3372702401443D7
:1001D000F19A14C3144393E6260014C3D84313774B
:1001E000F7F0D8C3D843D8C38280B7160240D842AC
:1001F000B70700209387070011833D8BBA979C2394
:10020000D4423777DC02130707C093F6060813F6CB
:10021000F70FB357F70099E2B357C702370700202B
:100220002320F7088280EFF21FF1130101DEAA8478
:100230002E852E84EF106022A685280BEF10101358
:10024000280BEF105015280BEF10900E280BEF1015
:100250009018280BEF10301DAA852808EF201040B9
:10026000280BEF10F00C280BEF10F016280BEF10F6
:10027000901BAA852809EF20703E280BEF10500B29
:10028000280BEF105015280BEF10F019AA85280A3B
:10029000EF20D03CA6856800EF1030192C086800CC
:1002A000EF10B01C2C096800EF10901D68002C0A9C
:1002B000EF10D01E6800EF10702119C58D65938571
:1002C0000503280BEF10D00E280BEF10100D228520
:1002D000EF10E01801A0EFF21FE6130101CC681047
:1002E000EF1010296C1028085122A80A4924AC0AE2
:1002F0002808912C6C104818EF1030134818EF1094
:100300001014B00A6C100801EF00205BB00A6C10EA
:100310002802EF00E06E30020C01880045218C00BD
:10032000881845218818EF005042B00A6C10AA8442
:100330008809EF009008B00A6C10E800EF10601F09
:100340005018EC000815EF10E0310815EF10603A76
:10035000B00A6C100811EF00B05F8818EF00B03ED3
:10036000AA8510114814EF00903EB00A6C10481B8B
:10037000EF00B06A141590094C14A808EF00107E25
:10038000C810B00A6C10EF10000D481BEF00707021
:1003900001C5CC106810413D8809EF00B024935787
:1003A0008500230AA1004181230BA1004810A30A64
:1003B000F100EF00E07613057102EF006076C204F1
:1003C0004C084810C180EF00406A0815EF104053F8
:1003D0000815EF1040490DC90815EF1040362AC620
:1003E0000815EF1020362AC40815EF1000362246F3
:1003F000B245AA860810EF00E07388090C10EF00E0
:1004000030130815EF1080468809EF00B01D935790
:100410008500230AA10041814C08230BA10048104C
:10042000A30AF100EF0060644810EF00E0696C0877
:1004300015C94810EF00206D0144E30894F86C08DA
:100440008800D526481BEF0070612AD070080C1078
:10045000A808EF001078050448144204EF00D043C8
:100460004180E1BF4810EF00406AF9B70CC18280BB
:10047000EFF27FCC41112A84AE84680001468145A9
:10048000EF10503D08407000A685EF10D0114101DB
:10049000C1B9EFF25FCA90318C2141112A84680002
:1004A000EF10F04008406C00EF10501C41014DB9B6
:1004B000EFF27FC8B28490318C2141112A84680008
:1004C000EF10503F08406C002686EF107015410178
:1004D00041B9EFF25FC690318C2141112A84680046
:1004E000EF10304A08406C00EF10500E41018DB9FA
:1004F000EFF27FC490318C2141112A846800EF1003
:10050000104808406C00EF10900E410191B99C21F9
:1005100075476369F702EFF21FC20D678A07130779
:100520004703BA979C4385058287993715B9953754
:10053000F5BF0546B53FDDBF0D46EDBF593FFDB7E1
:10054000453FEDB78280EFF21FBF2A89AE84014498
:1005500026859D246363A40021B1A2852685312CC4
:10056000AA8505044A8565371374F40FD5B7EFF2F1
:100570009FBC2A84230005001D4681450505EF1018
:10058000503085473CB01305440019468145EF10B3
:10059000502F89477CA01305740015468145EF1044
:1005A000502E8D471CB41305A40011468145EF1051
:1005B000502D91475CA41305D40019468945EF10CE
:1005C000502C95477CB41305040129468145EF1052
:1005D000502B99473CA81305340139468145EF104B
:1005E000502A9D475CB81305640135468145EF10DC
:1005F0005029A1471CAC1305940131468145EF10E9
:100600005028A5473CBC1305C4012D468145EF1079
:100610005027A9477CAC1305F40105468145EF102E
:100620005026AD47A300F40213052402014681457C
:10063000EF103025B1472302F402130554025D4642
:100640008145EF101024B547A303F402130584027B
:1006500059468145EF10F022B9472305F4021305EE
:10066000B40205468545EF10D021BD47A306F4022C
:100670001305E4021D468945EF10B020C147230849
:10068000F4021305140301468545EF10901FC5477A
:10069000A309F4021305440321468545EF10701E9B
:1006A000C947230BF402130574031D468545EF105B
:1006B000501DCD47A30CF4021305A403194685452C
:1006C000EF10301CD147230EF4021305D403154656
:1006D0008545EF10101BD547A30FF4021305040442
:1006E00039468945EF10F019D9472301F404130561
:1006F00034043D468945EF10D018DD47A302F404C9
:100700001305640421468145EF10B017E147230427
:10071000F4041305940425468145EF109016E5472F
:10072000A305F4041305C40409468545EF107015AC
:10073000E9472307F4041305F40409468145EF1043
:100740005014ED47A308F404130524050D46814514
:10075000EF103013F147230AF404130554052D4616
:100760008545EF101012F547A30BF4042946854583
:1007700013058405EF10F010E5B2F54763F5B700F7
:100780001305750582808D47B385F5022E9582800D
:1007900081470D46F9463387C7023308E500034811
:1007A00008006315B80005073A9582808507E39431
:1007B000D7FE130585058280794582800CC150C122
:1007C0008280EFF25F9791461306600991452A8473
:1007D000EF00A07522856FF0BF98EFF2DF952A84B5
:1007E0004841AE84B285A9240840A685FD289167BA
:1007F000938707E80100FD17F5FF0840A685212231
:10080000930780250100FD17F5FF6FF07F952E8679
:100810008545E1B72E868945C9B72E868D4575BFBA
:100820002E8691455DBFEFF21F912E84AC31AA84D4
:10083000F93F2C202685F93F0C302685F93F0C2006
:100840002685F93F6FF0DF91EFF2FF8E2A84AE84A8
:100850003285A94532892D3FAA852685EF1080660D
:1008600008C04CC04A85AD452537AA852685EF10BE
:10087000606508C44CC44A85B145193FAA852685E0
:10088000EF10406408C84CC84A85B5451137AA85A1
:100890002685EF10206308CC4CCC6FF07F8CEFF2F4
:1008A0009F892A8493040502228581452104EF1043
:1008B0003009E31B94FE6FF0BF8AEFF2DF8741112E
:1008C0002A84AA8413090502268532C62EC4A104EF
:1008D000EF10500AA2453246E39824FF2285AD3737
:1008E0002285753F41016FF0BF87FD1593F7F50F26
:1008F0000D4793F5F50F6373B7008D478E07854558
:100900003E956F10F003FD1593F7F50F0D4793F526
:10091000F50F6373B7008D478E0781453E956F10C5
:100920003002EFF25F812A84AE843285A545328998
:100930008535AA852685EF10E05808C04CC04A8549
:100940008145B935AA852685EF10C05708C44CC427
:100950004A858545353DAA852685EF10A05608C8ED
:100960004CC84A8589452D35AA852685EF108055C6
:1009700008CC4CCC4A858D45213DAA852685EF10B3
:10098000605408D04CD04A8591451935AA852685F2
:10099000EF10405308D44CD44A859545D53BAA85E1
:1009A0002685EF10205208D84CD84A859945CD337A
:1009B000AA852685EF10005108DC4CDC4A859D4550
:1009C000C13BAA852685EF10E04F28C06CC04A8540
:1009D000A1457D3BAA852685EF10C04E28C46CC476
:1009E0006FF00FF8EFF22FF52A84930405052285A6
:1009F00081452104EF10C074E31B94FE6FF04FF6A5
:100A0000EFF26FF341112A84AA84130905052685A4
:100A100032C62EC4A104EF10E075A2453246E39819
:100A200024FF2285FD3D2285753F41016FF04FF384
:100A3000EFF28FEE25472A89A5476363B700AE879B
:100A400093F4F70F0144A949931734003305F900D3
:100A50009377F40F85456383F40081450504EF1017
:100A6000206EE31334FF6FF0EFEEEFF2CFEC1304E0
:100A70003500AE840D46A285EFF06FEF0D46A685DA
:100A80002285EFF0CFEE6FF0AFED5C2118313385AA
:100A9000E7401375F50F7D15133515008280182179
:100AA0003C31998F93F7F70F0547639DE7001C31A1
:100AB00058213385E7401375F50F130555FC1335A1
:100AC0001500828001458280EFF2EFE641112A8411
:100AD000B52009E5014541016FF08FE89305340029
:100AE0002E852EC6A1287DD5B24522857D2065F5AF
:100AF000030704008307340022856314F70071376D
:100B0000D9BF713FC9BF0D058DA085A0A94733F797
:100B1000F502B3D5F50218A1B3F5F5020CB1828048
:100B2000FD571CA11CB13CA182800CA110B1230176
:100B3000050082800CA110B134A1828083062500BB
:100B4000AA8763C20602030715000145634E07002A
:100B50009023DD4763EAC7009307B00363C6D7005D
:100B60001325C703828001458280EFF2CFDC2E84FB
:100B700083051500AA842285513F8385040013054F
:100B8000240069376FF0CFDD03050500828003057F
:100B900015008280030525008280030705008387F6
:100BA0000500631AF70003051500838715001D8DE6
:100BB00013351500828001458280EFF2EFD52A843B
:100BC000AE843289130AC40051244A86A685528510
:100BD0005D24930984014A86A6854E85D124930716
:100BE000440200D423264403232834035CD80100A4
:100BF0006FF04FD6EFF22FD42A840845E92C4840F5
:100C00008145D12C010001000100010048408545CB
:100C1000D92401000100010001006FF06FD4EFF250
:100C20008FD12E8485892A899D44E9370580FD145A
:100C3000937514004A8593F4F40F6D3FE5F86FF057
:100C40002FD2EFF24FCF2A8448412E898145B284BA
:100C50005924084085454124D1470100FD17F5FF7F
:100C6000084441244A85EF10E063AA852285453F68
:100C70002685EF108065AA85228555370840814575
:100C8000992C6FF0EFCDEFF20FCB41112A842800A1
:100C9000EF1020688146480001469145EF10006042
:100CA00030004C0013058402693F41016FF04FCBC7
:100CB000EFF26FC82A842E85EF004077AA8522853F
:100CC000D9376FF0EFC9EFF20FC741112A8428001E
:100CD000EF10206C8146480001468945EF10005C0A
:100CE00030004C0013058402A93F41016FF04FC74B
:100CF000EFF26FC42A842E85EF00A075AA852285A5
:100D0000D9376FF0EFC5EFF20FC341112A842800E5
:100D1000EF10206B8146480001468145EF100058D6
:100D200030004C0013058402293F41016FF04FC38E
:100D3000EFF26FC02A842E85AE84B9359375F50F16
:100D4000228591372685A1359375F50F2285A53F1C
:100D5000268589359375F50F228575376FF04FC05D
:100D6000814555B7EFF24FBB2A8448412E89814512
:100D7000B289952208408545D144B12A0100FD146D
:100D8000F5FC08441D4AB12A4A85EF10A051AA85F6
:100D90002285713508440149BD2248408145252AF4
:100DA000010001000100010008440D2AB31795005D
:100DB00093F7F70F33E92701639B4401CA854E85FA
:100DC000EF10E0500840814539226FF0AFB848403D
:100DD0008545112201000100010001001379F90F7E
:100DE000850465BFEFF22FB579712A840810EF10E2
:100DF000E0502810EF1080580808854601469145BC
:100E0000EF10C0498546480801468945EF10004962
:100E10001305840210100C082AC6A9373245301079
:100E20004C0889370810EF1040532AC62810EF10DD
:100E30004054B2452A862808EFF03FCF8347A101EE
:100E4000A884C2075D8D45616FF08FB1EFF2AFAE40
:100E500041112E84AA84B9453285EFF07F93AA858B
:100E60002285EF1020062A86AE862685A285B12827
:100E700041016FF0EFAEEFF20FAC41112E84AA8466
:100E8000BD453285EFF0DF90AA852285EF10800303
:100E90002A86AE862685A2850D2841016FF04FACCB
:100EA000EFF26FA941112E84AA84C1453285EFF07B
:100EB0003F8EAA852285EF10E0002A86AE86268521
:100EC000A285212041016FF0AFA941110CC150C191
:100ED00014C54101828011056F10802611056F1025
:100EE000A027EFF24FA541112A84014668008145F1
:100EF000EF1040160840700093054400EF00507159
:100F000041016FF0EFA5EFF20FA341112A840546CE
:100F100068008545EF1000140840700093054400F8
:100F2000EF00106F41016FF0AFA39307803E50C1F7
:100F30003356F6020CC1B295B386D502B3D7D702A9
:100F400014C55CC582800845828048458280EFF2E6
:100F50008F9E2A840CC150C1930485001309850417
:100F60002685C104E92EE39D24FF232404042326BF
:100F7000040423280404232A04040100232C040469
:100F8000232E040423200406232204060100232424
:100F900004062326040623280406232A0406010047
:100FA000232C04066FF0CF9BB307B50023840704FE
:100FB000B147B385F50248412E956F100011939704
:100FC0002500AA97F8471441158F6354E000F8C72D
:100FD0008280B147B385F50248412E956F10C0104D
:100FE000EFF26F95B147B387F5022A844841AE848A
:100FF0003E95EF10800D93974400A297D8478A043E
:10100000269478C49C4B7CCC6FF08F9593962500EA
:10101000AA96F04E03280500330606416354C0002B
:10102000F0CE8280EFF22F91F05613974500B30770
:10103000E5007D16F0D6984785466307D7008947B7
:101040006305F7006FF0CF9119C2593FE5BF23A4A4
:101050000700CDBFEFF22F8EB147B387F5022A8488
:10106000484141112EC63E95EF10E00AB24511C528
:101070002285B13741016FF0AF8E2285413FDDBF40
:10108000EFF26F8BB307B50083C7870481C7293F91
:101090006FF00F8DC137EDBFEFF20F88AA841309EF
:1010A0008500014491494A85752401C5A28526859C
:1010B000C13F05041374F40F4109E31634FF6FF0C8
:1010C0006F89EFF24F873289AE8490328C22011102
:1010D0002A846808EF00B07DB147B384F402700839
:1010E000CA850A85EF0010568A85314626942285E6
:1010F000EFF0EF8705616FF0AF86EFF2CF832A84C0
:10110000AE843285C5453289EFF08FE8AA862686FF
:10111000228581457D37C9454A85EFF06FE7AA866C
:10112000268622858545713FCD454A85EFF04FE6FD
:10113000AA862686228589456937D1454A85EFF0FA
:101140002FE5AA8626868D452285A53F6FF04F8123
:10115000EFE27FFEAE843289814501462A84EF00AA
:10116000907A1305C40001468145EF00D07913053C
:10117000840101468145EF001079130544020146C0
:101180008145EF0050784A86A6852285BD376FE0FD
:101190003FFDEFE25FFA2E84B2848C22903241113F
:1011A0004800EF0030714C002685EF00304F2AC414
:1011B0002EC622852C00212241016FE07FFAEFE24A
:1011C0009FF72A84AE843285D5453289EFF04FDC13
:1011D000AA862686A28522856D3FD9454A85EFF0ED
:1011E0002FDBAA8626869305C40122855D37DD455F
:1011F0004A85EFF0EFD9AA862686930584032285D7
:10120000493FE1454A85EFF0AFD8AA862686930587
:1012100044052285BD3F6FE0BFF4EFE2DFF1AE840D
:1012200032899145130650062A84BD201305C40156
:101230001306500691458D201305840313065006AE
:101240009145992813054405130650069145A92098
:101250004A86A6852285A5376FE09FF0EFE2DFEB97
:101260004111AA8975282A841385C90155282A891C
:10127000138589037520AA842209138549054D2009
:10128000C20433642401458C6205418D41016FE045
:101290007FEC1305450555A0EFE2FFE92A842E896E
:1012A000B284EF0090672324240144C4232804005F
:1012B000232A04000100231C04006FE07FEA9C4104
:1012C0001CC1DC415CC101008280AA872328050083
:1012D000232A0500230C0500083D0100054763157E
:1012E000E500A38C0700828001458280184954499B
:1012F0004C4505078506054618C954C910BDAA877F
:10130000638EB60014450145636BD700982F23A860
:101310000700114509E790AF094582800D4582809D
:10132000EFE27FE12A84EF00506009C522857D3F0E
:101330006FE01FE32285513FE5BF6F00105FEFE2D2
:101340009FDF2A8423200500110565282326040039
:101350006FE01FE108413335A00082800CC150C10D
:1013600014C5828089476393F502EFE2DFDC411107
:101370002A84B28568003686512868007128484062
:101380006C00EFF0FF9241016FE09FDD82808947A2
:101390006393F502EFE23FDA41112A84B2856800D7
:1013A000368679206800592848406C00EFF05F9439
:1013B00041016FE0FFDA828089476395F50048417B
:1013C0006FF01F9A828089476394F500084549A908
:1013D0008280EFE25FD62E84B28434228C213032B8
:1013E0002A89EFF03FF8942090300C304A85EFF0D6
:1013F0001FFA2C204A85C9372C304A85E9376FE01F
:101400003FD69307803E1CC15CC18280A947B3854B
:10141000F5022E9610A182801C215D47850793F767
:10142000F70F6373F70081471CA182800821828037
:10143000A947B385F5022E9610A182801C211307BF
:10144000B003850793F7F70F6373F70081471CA17B
:10145000828008218280CD4681A06F0010476F00F6
:10146000B048EFE25FCD01112A84AE843285B685A3
:10147000EFF00FB210310C216808EF0050437008F4
:10148000A6850A85EF00101C8A8531462285EFE08B
:101490001FCE05616FE0DFCCEFE2FFC941112A8466
:1014A0002EC632C436C2EF00704692462246B2457E
:1014B0002285EFF01FFB41016FE09FCA85456F0059
:1014C000304881456F00D04721056F00D056210577
:1014D0006F003055EFE23FC641112A84AE84328559
:1014E000E545EFF0EFAA10310C216800EF007039EC
:1014F0006C002685EF00101D08C04CC041016FE054
:101500003FC6EFE25FC3411171662E8413060620C9
:10151000AA8485452800EF0010472C002285EF00A3
:10152000500685452285EF00701C88C441016FE09C
:101530003FC3EFE25FC041112A84AE8432C6EF00A0
:10154000704313058400EF00704D3246A685228556
:10155000EFF05FF8A6852285EFF0BFFA41016FE05A
:101560003FC0EFE25FBD130485002285EF0090507D
:101570006DFD6FE0FFBEEFE21FBCAA842E8413094D
:1015800085008305040099E16FE09FBD93F5F50F99
:101590004A85EF00904B2685EFF0BFFC0504D5B7D8
:1015A00021056F00704EEFE21FB921052E84EF0078
:1015B000304B93158501E185228531286FE05FBAB4
:1015C00013060008814523000508A30005086FE005
:1015D0007FBB6FF0FFFE834705083307F5000CA3C0
:1015E00035476397E500034715080507A300E5089D
:1015F0001307E0076385E70085072300F50882806D
:10160000034515080D8D13351500828082808347B0
:1016100005081D476371F702AA978386E7FF130742
:10162000B0040145639AE6000385D7FF130515FB57
:1016300013351500828001458280EFE2DFAF8D65B2
:101640009385C50A2A84EF10900519E98D65938565
:10165000450B2285EF10B0043335A0006FE05FB07A
:101660000545EDBFEFE23FAD85472A841CA950C177
:101670000CC1232405000100232605004505EFF0D9
:101680005FF58565A3090408938505E113056409E1
:10169000752C6FE0FFACEFE23FA813091501411173
:1016A000AA844A852EC6B289EFF09FF1B2458840E0
:1016B0000144130A4006EFF01FECCE854A85EFF097
:1016C0003FF40DE1630044038840EFF07FED11CD5E
:1016D0008840CA850144EFF01FEDCE854A85EFF0C2
:1016E0003FF27DD141016FE0FFA605041374F40FB2
:1016F000E9B7EFE25FA42A840841EFF03FDCB717B7
:101700003D00938707900100FD17F5FF0840EFF0BB
:10171000BFDB8D6522850D469385C50BEFF0BFF7C6
:1017200013051401EFF0BFEE19C185471CC4084032
:10173000EFF0FFD90840EFF0DFD86FE07FA203455C
:10174000A50982800345B50982800345C5098280C9
:10175000EFE27F9E2A840841EFF05FD60840EFF069
:10176000BFD685475CC42308040013056409DD2245
:101770006FE01F9FEFE23F9C1C2941112A8499C30F
:10178000EFF01FFD130564092AC6C12A3245D12A8C
:1017900001C52285EFF0DFFB41016FE07F9CEFE2A6
:1017A0009F992A8408418D659385450CEFF0BFDC35
:1017B00089475CC46FE0DF9AEFE2FF972A844841D3
:1017C000557161292AC648407129B2452A86080800
:1017D000092B08400C08EFF01FDA8D475CC4A947BD
:1017E000A30EF40869616FE0BF978347D509FD1721
:1017F00093F7F70FA30EF50899E391475CC5828034
:10180000EFE27F938D6511469385450D2A84EFF0B5
:101810009FE813051401EFF05FE2AA87084091CB1F
:10182000EFF0FFCA0840EFF0DFC9232604006FE0A5
:101830003F938D659385450EEFF0FFD395475CC4CC
:1018400093073002230FF408DDB78347E509FD173E
:1018500093F7F70F230FF50899E399475CC582804A
:1018600085471CA98280034535098280A3090508A4
:101870008280EFE25F8C0344A509AA844841C92E07
:10188000B307A40013F7F70FE207E187DD4663DA39
:10189000F600211793178701E187238DF4086FE085
:1018A0003F8CE3DC07FE6107F5B7EFE2DF888D656B
:1018B000411111469385850F2A84EFF0DFDD084042
:1018C000EFF0FFC00840EFF0DFBF1305140123263F
:1018D0000400EFF0BFD3AA85680059289306C40915
:1018E0001306B4099305A4096800F92A19C58547A8
:1018F000A309F4082285EFF0DFF741016FE05F866E
:101900001C45A1C75C4519476361F704EFE2BF823C
:101910000D678A071307C710BA979C438287EFF0B9
:101920007FE56FE0FF83EFF09FE7E5BFEFF0DFE8D3
:10193000CDBFEFF09FEBF5B7EFF09FECDDB7EFF029
:10194000DFF0C5B7EFF07FF6E9BF82800EA123116B
:10195000050082802311050082803E2185073EA17B
:1019600082803E211A213385E7401335150082809D
:101970000CC1828014410147014535468545B38736
:10198000A6008387070099E3014582806398C7001A
:101990006315B7001375F50F828005470505C5B7B8
:1019A00099E1014582801C411387F5FFAE9783873B
:1019B00007006395C70013F5F50F8280BA85CDB790
:1019C000EFE26FF72E848C21411113060002AA84E6
:1019D0002316010023070100EFF09FFC08A09C40A4
:1019E0003E95830715005C86830725006800DC862A
:1019F000EF10E03B1375F50F41016FE06FF6EFE27A
:101A00008FF32E848C2141111306A003FD1593F54D
:101A1000F50FAA842316010023070100EFF05FF8F9
:101A200008A09C403E95830715005C86830725002F
:101A30006800DC86EF10A0371375F50F41016FE0E9
:101A40002FF2EFE24FEF2E848C2141111306A003F9
:101A5000AA842316010023070100EFF07FF408A0F9
:101A60009C403E95830715005C868307250068002F
:101A7000DC86EF10C0331375F50F41016FE04FEEB8
:101A8000EFE26FEB4111B284130600022A8402C414
:101A900023060100EFF0DFF088A01C403E9583078D
:101AA00015005C8483072500DC8401008307350072
:101AB0005C85830745002800DC85EF10402F420538
:101AC000418141016FE0CFE9EFE20FE5238006009D
:101AD000230006004111238005002A84AE84328948
:101AE000B689EFF03FE909E5014541016FE08FE676
:101AF000AA851306F1002285EFF09FF89307207B5B
:101B0000E304F5FE9305F1002285EFF09FF32380B7
:101B1000A9009305F1002285EFF07FEE2300A900D4
:101B20009305F1002285EFF0BFE988A0054575BF58
:101B30002302050813060008814511056FE08FE4B4
:101B4000EFE26FDF411171662E8413060620AA842E
:101B500081452800EF0020632C0022851D2481454B
:101B60002285692688C041016FE08FDFEFE2AFDC9C
:101B70002A84AE84EF00806A1306000881451305AD
:101B80004400EFE02FE0A685230204082285EFF051
:101B90003FFB6FE0EFDC6F00006A6F008068EFE2F0
:101BA0008FD92A842285EF00E06C6DFD6FE04FDB5A
:101BB000EFE26FD8AA842E848305040099E16FE0D8
:101BC0002FDA93F5F50F2685EF0020682685EFF0D4
:101BD0001FFD0504D5B7EFE22FD42A843549A94962
:101BE000130AD0059304E0072285EF00E0696DDD5C
:101BF0002285EF00E066630625036304350393073F
:101C0000F5FD93F7F70FE361FAFE834744083307C6
:101C1000F400850748A393F7F70F2302F408E39530
:101C200097FC6FE02FD311058280B7F700089387E8
:101C300007705CC1930700100CC11CC582804C4129
:101C400037050020130610081305850B6FE02FD20F
:101C5000B70700200385870B828037050020130516
:101C6000950B8280138591878280EFE2CFCC2E8501
:101C7000EF10E013B7070020238CA70A6FE04FCEC8
:101C8000EFE26FCB370500201306F0031305950B29
:101C9000EF10C01E238C01866FE08FCCEFE2AFC93E
:101CA0001306F00313859187EF10401D238C018AE2
:101CB0006FE00FCB10454C410841A9A414454C419D
:101CC0000841370600201306860B81ACEFE2AFC651
:101CD0002A84EFF03FFE01C52285EFF03FFE6FE062
:101CE0002FC8EFE24FC52E898D65938585122A8412
:101CF000B284EF10A0162285EF1040178D659385F2
:101D000085132295EF1080152285EF102016CA85C5
:101D10002295EF10A0142285EF1040158D65938554
:101D2000C5132295EF1080132285EF102014A6858D
:101D30002295EF10A0122285EF1040138D65938538
:101D400005142295EF1080112285EF1020128D6569
:101D5000938545142295EF1060106FE06FC0EFE29D
:101D60008FBD0545EF003003EFE02FC86FE04FBF98
:101D7000EFE26FBC2A84752A2285EFF05FFE6FE0E8
:101D80002FBEEFE24FBB2E848C214111AA84F92291
:101D900001C50C202685C52A50400C206800FD2670
:101DA00041016FE0EFBBEFE20FB92E848C214111AE
:101DB0002A89B284792A01C50C204A856D226800DF
:101DC0002686A285FD2241016FE08FB9EFE2AFB612
:101DD00041112A84AE84680015468145A52C700007
:101DE000A6852285EFF03FFC41016FE06FB7EFE27F
:101DF0008FB441112A84AE84680005468545992C2C
:101E00007000A6852285EFF01FFA41016FE04FB503
:101E1000EFE26FB241116800E12241016FE04FB47F
:101E2000EFE26FB141112A842800B284A524A6856F
:101E30006800412C70002C002285EFF0DFF6410194
:101E40006FE00FB2EFE22FAF0C2241112A8428007D
:101E5000B2840D248C302A89680001242A86CA8520
:101E600022855524228541016FE08FAFEFE2AFACB0
:101E700001112A846800AE84012C08083D2C10084A
:101E80006C002285EFF03FF22686A2854808EFF02D
:101E90007FFB4808912C05616FE08FACEFE2AFA9A2
:101EA0002E848C2101112800F1220C30AA846800B4
:101EB0006D222A86A6850808B5244245D2450561CB
:101EC0006FE00FAAEFE22FA72E848C2101112800CA
:101ED00055220C30AA84680049222A86A685080863
:101EE00079244245D24505616FE08FA7EFE2AFA4A8
:101EF000411128002126AA856800392E324541016A
:101F00006FE00FA6EFE22FA32E85B285EF0030071A
:101F10007115133515006FE0AFA4EFE2CFA12E8548
:101F2000B2853686EF00B01E7115133515006FE0CF
:101F30002FA323000500A300050023010500A30132
:101F40000500010023020500A3020500230305008C
:101F500082802E9508211345150082802E95283108
:101F6000134515008280EFE20F9D41112A8468001D
:101F7000AE843D228545EF002066269485471CA04F
:101F800041016FE0EF9DEFE20F9B41112A84AE8487
:101F9000680099E99D2C8545EF00006426948547EB
:101FA0003CB041016FE0CF9B8D248545EF00A064DC
:101FB000F5B7EFE24F982E848C3101112800B284DE
:101FC00069282ACAA6856800BD200C2085472ACE2C
:101FD00008083ECC45204C08112905616FE04F9858
:101FE000EFE26F95DC4141112E840A85B2853EC235
:101FF00099202AC6084085474C003EC4C52E4101A1
:102000006FE00F962E85B2853686A5ABEFE2AF92D4
:102010002E85B28595233335A0006FE06F94F915B6
:1020200093F5F50F8947114563E6B70093878181E2
:10203000BE9588218280AE87982385478C316314B2
:10204000F7006FF0DFFD954761456384F50041457A
:10205000828082800CA110B18280DD460D6793F7EB
:10206000F50F63F3B600DD47130787148A07BA97A5
:10207000884382808D678A059387871AAE97884345
:1020800082800CA110B182809C211CA19C311CB1CA
:10209000010082809C211CA19C311CB10100828026
:1020A0008D678A059387471BAE97884382800CA172
:1020B00010B182800CA110B18280014681456FF081
:1020C0007FF92E8685456FF0FFF8EFE2CF86104549
:1020D0004C4141112A8481466800EFF0BFF28547E8
:1020E0001CA041016FE0CF87EFE2EF8410454C4127
:1020F00041112A8485466800EFF0DFF023000400D8
:1021000041016FE0EF854CC110C58280232205009C
:1021100023240500828008218280232005002322B9
:10212000050082800CC150C18280EFE2CF80504117
:102130000C4141116800EFF07FED41016FE04F82EB
:10214000EFD27FFF5041AE860C4141116800EFF0A5
:102150007FEB41016FE0CF80EFD2FFFD50410C419A
:1021600041116800EFF09FEA41016FD07FFF0CC181
:1021700050C18280232005002322050082806FF059
:102180005FF06FF01FF00CA150C18280EFD2BFFA58
:102190000111B7070C00680032C83ECC02CA231EEA
:1021A00001000100A1280C08B52105616FD05FFB7B
:1021B0002E858145FDA12E858545E5A12E85B2851B
:1021C000DDA9EFD25FF72E85DD291375F50F6FD0EE
:1021D0003FF9EFD25FF62E8593050008ED21133508
:1021E00015006FD0FFF7EFD21FF52E859305000283
:1021F000D9297D15133515006FD09FF68D678A0597
:102200009387071CAE97884382808D678A059387E2
:10221000071DAE97884382800CC182802320050071
:102220008280EFD25FF10C4141116800EFF05FF85E
:1022300041016FD0FFF2EFD21FF00C414111680055
:10224000EFF07FF741016FD0BFF1EFD2DFEE2E86C6
:102250000C4141116800EFF07FF641016FD05FF053
:10226000EFD27FED0C4141116800EFF09FF5410185
:102270006FD01FEFEFD23FEC0C4141116800EFF03F
:102280005FF541016FD0DFEDEFD2FFEA0C41411164
:102290006800EFF05FF541016FD09FEC0CA110B129
:1022A00034A1828038211C21D98F18311A0733E5D7
:1022B000E700136505F81375F50F82808D67938726
:1022C000871F1CC1230205008280482182804CA107
:1022D0008280A94733D5F502B3F5F50212054D8D7D
:1022E0001375F50F828033F5C500A94711813305B9
:1022F000F502BD892E951375F50F8280EFD2BFE3ED
:102300002A84EFF0BFFB8D67938707221CC06FD034
:102310003FE5EFD25FE241112A842EC6EFF01FFAAB
:10232000B2458D67938707221CC02285EFF07FFAA4
:1023300048A041016FD0DFE24C21130600036FF08B
:102340009FFA5C21314713D5570005893305E50213
:10235000BD8B3E951375F50F8280EFD2DFDD5C21DA
:102360009D8389E7EFF05FFD6FD09FDFEFF07FFD8A
:10237000E5BF4C21130600076FF0FFF6EFD2BFDB7D
:102380002A84EFF0BFF38D679387C7241CC06FD0FA
:102390003FDDEFD25FDA41112A842EC6EFF01FF243
:1023A000B2458D679387C7241CC02285EFF07FF26A
:1023B00048A041016FD0DFDA4C21130600076FF00F
:1023C0009FF2EFD25FD741112A842EC6EFF01FEFA4
:1023D000B2458D674420938787271CC02285EFF084
:1023E0005FEFC98C44A041016FD09FD79845937788
:1023F00007011378F70081C7DC413368F800944186
:1024000093F7F60FB1C31C410146054E930E8002AF
:102410003D4F930F80042143B315CE00B3F8B600AF
:1024200063901503631ED70F4CC993182600B3158C
:102430001F0193C5F5FFED8FB3181801B3E7F8003E
:102440000506E31B66FC1CC14166130606F0758E8B
:1024500049C237F6FF1F032646701376060F7DE24A
:1024600037160140930506806310B50C83A7C18021
:102470008145054E930E80023D4F930F800421430A
:10248000138685003316CE00B3F8C600631016031A
:10249000631CD70B50C99398250033161F011346B0
:1024A000F6FFF18FB3181801B3E7F8008505E3993B
:1024B00065FC5CC137F6FF1F032646701376060FD6
:1024C00009EA37160140930506806313B50823A671
:1024D000F180C16763E5F604504D81470543930ED3
:1024E0008002130F8004214E93850701B315B300BA
:1024F000B3F8B60063911503631AD7074CC99398D4
:102500002700BD45B395150193C5F5FF6D8EB31832
:10251000180133E6C8008507E398C7FD50CD8280D7
:10252000E315F7F10CC911B7930506C06315B500A3
:1025300083A7818035BFE31DC5F2B707002083A7BD
:1025400047083DB75C412DB7E317F7F510C9A1B7B0
:10255000930506C06315B50023A4F1809DBFE31A5F
:10256000C5F6370600202322F608A5B7E319E7F9D8
:10257000B315F3000CD161B708456D8D3335A0005C
:10258000828001CA93970501C1831CC9C1810CD106
:1025900082804CC9828023A6A18282803777DC02A8
:1025A000130707C018C1371602405442B70700206E
:1025B000938707019182BD8AB6979C23544293F575
:1025C000F70F93F60608B357F70099E2B357B7022F
:1025D0005CC11CC55CC5828099C5371702401C4F81
:1025E000C98F1CCF8280B7170240984F1345F5FF63
:1025F000798D88CF828099C5371702405C4FC98F8B
:102600005CCF8280B7170240D84F1345F5FF798D14
:10261000C8CF8280EFD23FB21629F577FD17FD8E25
:10262000FE21DA254111D58F1EA95625FD77938706
:10263000379FFD8EDE212A84AE84D58F9625D58FD7
:10264000B625D58F5EA55E29C207C18393F7F7CF64
:10265000D98F5EA90A85EFF07FF4B74701409387D1
:102660000780631EF402B2476547B387E7029840CC
:10267000930640060A07B3D7E70233D7D702B3F76A
:10268000D7021207920793872703B3D7D702BD8BD0
:10269000D98FC207C1831EA441016FD07FACA2476E
:1026A000E1B75E2589C50967D98F5EA582807977F4
:1026B0007D17F98FDDBF93F5F51F4EA182804A216A
:1026C0001375F51F82800A216D8D3335A00082803D
:1026D000B72602409C4A01771307F7FDF98F9CCA81
:1026E000A1676319F600372702401C4BB70680002C
:1026F000D58F11A893070040631FF60237270240C9
:102700001C4B93E727001CCBB7270240C8CB984B44
:102710001367070498CBD847058B75FF2167FD1514
:102720006315E602984BB70680FFFD16758F98CBB0
:102730003295D5F9828093070010E317F6FC37270E
:1027400002401C4BB706020065B71307004063192F
:10275000E600984B13050540759B98CBC1FD828020
:1027600013070010631BE600984B8176FD16758FEA
:1027700098CB13050510BDFD8280ADFD8280370723
:1027800000F8BD672A979387F77F63EEE716EFD2CD
:10279000BF9837070108B306B500130707802A89D9
:1027A0009307D00F636BD712B364B50093F4F40FA3
:1027B0009307E00F6393041263810512B706674520
:1027C000B7270240938636123797EFCDD4C313074D
:1027D000B79AD8C3D4D3D8D3A16763E7F5041387D6
:1027E000F7FF698F338AE7409D8DB3094501338434
:1027F000E5006307FA0ED2846367F404B3878900A7
:1028000013971701135B1701CE8A01C7E17AB3FA58
:102810005701B30564414E852166BD81EFF05FEB42
:10282000D2845A84D68905A09307F03F63F3B70892
:102830009377F53F930400409D8C938505C0B309C1
:1028400095003384F5009307F03F63F49702137A01
:10285000F93F63060A0093070040338A4741B38576
:10286000444113060040A98133052A01EFF05FE6D9
:10287000D2849307F03F63F58702B307340113FA5C
:10288000F73FCE8A63040A0093FA07C0B3054441B8
:102890004E8513060040A981EFF09FE35284D6894C
:1028A000B1C81306001093D584004A85EFF05FE2AB
:1028B00091A09307F00F63F7B70013060010A181F2
:1028C000EFF01FE1B7270240984BA166558F98CBD8
:1028D000984B1367070898CB91473E856FD09F8729
:1028E00021668545EFF0DFDE637D44019307F03F0D
:1028F000E3E587F861D813060010935584004E85F0
:10290000C1B7014AE5BD9307F00F3E858280B70647
:1029100000F83D67AA961307F77FAA876366D70E6C
:1029200037070108B306C500130707801305D00F4A
:10293000636ED70C33E7C7001377F70F1305E00F6B
:1029400071E769C637056745372702401305351219
:10295000B796EFCD48C39386B69A54C348D354D3A1
:10296000144B010001751305F5FDE98E14CBC176FA
:102970003E859D8D2182B7270240C168370308003C
:10298000370E0400930E0010FD16984B338FA500F0
:102990003367170198CB984B3367670098CBD847BC
:1029A000058B75FF3308EF00832F08003308E5001F
:1029B0002320F80103A807013368C80123A80701F1
:1029C00003A8C70013781800E31C08FE1107E31BD7
:1029D000D7FDC8CB984B130805101367070498CB95
:1029E000D847058B75FF984B7D16758F98CB19EAE4
:1029F000984BA1661145558F98CB984B13670708E4
:102A000098CB8280428551B71305F00F828001A0D8
:102A100097E1FF1F938101E7172100201301815ED9
:102A2000171500001305C5A897D5FF1F9385855D71
:102A30001386C18263FAC5008322050023A05500D6
:102A400011059105E3EAC5FE1385C1829385C18B0B
:102A50006377B500232005001105E36DB5FEFD4247
:102A6000739002BC8D4273904280930280087390F1
:102A7000023097D2FFFF9382225993E23200739083
:102A80005230EFD06FF297E2FFFF9382028573908E
:102A90001234730020300111C1473EC41C4122CCC6
:102AA00032849C4F104206CE02C0010002C202C610
:102AB0008A868297924719470145998B6395E7006B
:102AC000824705451CC0F240624405618280194579
:102AD0006303C70005458280970700009387C77D81
:102AE0001CC1D1A4411122C406C62A84EFF0DFFE26
:102AF00022852244B240A145410109A26306B502E4
:102B000014211307A00281476381E6029C21411131
:102B100006C66393E7008505EFD0CFE7B240933751
:102B200015003E854101828085473E858280CC41EB
:102B30004841411122C426C206C6B2843684EFF051
:102B4000FFFB11C5A1475CC4994704C05CC0B240FB
:102B500022440100924441018280011122CC26CA04
:102B60004AC84EC6010052C406CE032A4500B284AC
:102B7000B6893A89468463120703CC435285EFF045
:102B8000FFF701CD04C4F2406244D244010042493F
:102B9000B249224A01450561828083A549005285D8
:102BA000EFF0DFF56DD185472320240144C05CC4DC
:102BB000D9BF011122CC26CA2E84AA84CC41484117
:102BC0004AC806CE010032C63689EFF03FF305E170
:102BD0008D4763EE27011C40228562443246F24055
:102BE00042490100DC4BA685D24405618287F24050
:102BF0006244D244424901000561828045AA970798
:102C00000000938767711CC16FF01FED411122C452
:102C100006C62A84EFF0BFFE22852244B240B145A9
:102C200041016FF0BFFD6306B50214211307A00236
:102C300081476381E6029C21411106C66393E70048
:102C40008505EFD02FD5B240933715003E85410161
:102C5000828085473E858280797162C4032C45005D
:102C60004AD02E89CC425EC6AA8B628522D426D257
:102C70004ECE52CC010056CA5AC806D6B289B68A80
:102C80003A843E8B428AC684EFF0FFF921C180C0AE
:102C900023A23401634709024A94854763138A00DB
:102CA0009947DCC4B2502254925401000259F249AF
:102CB000624AD24A0100424BB24B224C0145456167
:102CC0008280F957E310F9FE8547E1BF631B440199
:102CD00083254B006285EFF01FF501C523A4340165
:102CE000D1B703A58B00228722541C41B250B24BAE
:102CF000010003A3C701224CA68852889254624A5D
:102D0000DA87D686424BD24A4E86CA85F2490259A4
:102D100045610283011122CC26CA06CE2A84AE84E4
:102D2000631EC700CC4248413AC632C4010036C2D5
:102D3000EFF07FEF92462246324719E90844624499
:102D4000F2401C410100A685D2449C530561828754
:102D5000F2406244D244194505618280011122CCBF
:102D600026CA4AC84EC6010006CEAA892E84B2845D
:102D70003689EFF0DFDB05E103A58900A285624417
:102D80001C41F240B24901009C4FCA862686424946
:102D9000D24405618287F2406244D2444249010034
:102DA000B2490561828082800145828021A0294646
:102DB000814599ACAA8503A5018109A0D9CD83A736
:102DC000C5FF011122CC06CE1384C5FF63D30700D3
:102DD0003E942AC6B124138701831C43324589EBF4
:102DE0002322040000C36244F240010005612DACBF
:102DF000637DF4001040B306C4006396D70094438B
:102E0000DC43B29614C05CC0F1BF3E87DC4399C37B
:102E1000E37DF4FE14433306D700631F86001040A1
:102E2000B29614C33306D700E39FC7FA9043DC433E
:102E3000B29614C35CC345BF6375C400B1471CC1DF
:102E40005DB71040B306C4006396D7009443DC43DB
:102E5000B29614C05CC040C379B78280AA8798211B
:102E600085078505A38FE7FE7DFB8280AA879823CF
:102E7000850775FF3385A7407D158280AA8701CA23
:102E8000982185058507A38FE7FE7D166DFB3E968D
:102E90006393C70082808507A38F07FED5BF982163
:102EA00015E38280631FF7008547B386F5009422FF
:102EB00091E282803306F50010226314D600850764
:102EC000EDB705051C21F9FF01458280411106C6B9
:102ED00022C49307400263EBD70005472A8FAE87D1
:102EE0001703000013039346639AE6002D22D94787
:102EF0001CC10145B240224441018280BE88982312
:102F00008507330567000348050013788800E31739
:102F100008FE1305D0026311A7069823854F9387F7
:102F20002800A5E6930600036304D708A946B7085E
:102F30000080FD18FE98B3F2D80201430145A54375
:102F4000E54E7D5433DED802130807FD63EA03071C
:102F500042876355D708630D83007D53636AAE00D3
:102F60006314AE0063C6E20005433385A6023A95BA
:102F7000850703C7F7FFC9BF1305B002814FE312EE
:102F8000A7FA98239387280069BF4145E391A6FAE1
:102F900013050003E31DA7F803C807001305800508
:102FA0001378F80DE315A8F89833C146890741B79F
:102FB00003C8070013058005A1461378F80DDDB797
:102FC0001308F7FB63E50E01130797FC59B71308C5
:102FD000F7F963E50E01130797FAA5BF7D57631B49
:102FE000E300130720022320EF00468501D69385D6
:102FF000F7FF09A863840F003305A040E30C06EE39
:10300000E31703FE0CC2FDB5B2862E86AA8503A582
:1030100001816FF0BFEB03A50181828082808280F5
:10302000138541836FF09FFF138541836FF03FFF4E
:103030004F4B00002A0500002A0500002A05000069
:103040002A0500002A0500002A0500002A050000C4
:103050002A0500002A0500002A0500002A050000B4
:103060002A0500002A0500002A0500002A050000A4
:103070002A0500002A0500002E0500002E0500008C
:103080002E0500002E05000032050000320500006C
:1030900038050000380500002A0500003C05000046
:1030A00040050000400500003C0500004E6F204137
:1030B00050000000627573790000000041540D0A51
:1030C0000000000041542B43574D4F44453D310D06
:1030D0000A00000041542B43574A41505F43555268
:1030E0003F0D0A0041542B434950534E5450434620
:1030F000473D312C300D0A0041542B434950534E6B
:10310000545054494D453F0D0A0000001E1900005F
:10311000261900002C19000032190000381900008F
:103120003E1900004419000041542B43574A4150B6
:103130005F435552000000003D220000222C220077
:10314000220000000D0A0000010000000200000043
:103150000400000008000000100000002000000033
:10316000400000008000000000010000000200009C
:103170000004000000080000001000000020000013
:10318000004000000080000000000100000002007C
:1031900000000400000008000000100000002000F3
:1031A000000040000000800000080140000C0140C9
:1031B00000100140040000000800000010000000A2
:1031C000003801400044004000480040004C0040EE
:1031D00000400000000002000000040000000800A1
:1031E0004E366473313330323444617461450000CB
:1031F000000000009C000020000000004E366473B8
:103200003133303234486F7572450000143300009A
:10321000FC3100009C000020000000000C32000087
:103220005A2300004E36647331333032374D696EA5
:1032300075746573450000001433000024320000EB
:103240009C000020000000003832000072230000C3
:103250004E36647331333032375365636F6E647347
:103260004500000014330000503200009C00002094
:103270000000000064320000B82300004E31305FCF
:103280005F637878616269763131375F5F636C6163
:1032900073735F747970655F696E666F45000000D7
:1032A000143300007C320000A40000200000000065
:1032B000A0320000D82A0000E42A0000A82D000057
:1032C000A82D0000B22B0000962A00002E2B000033
:1032D0005A2B0000CE2A00004E31305F5F637878B1
:1032E000616269763132305F5F73695F636C61730D
:1032F000735F747970655F696E666F4500000000EA
:1033000014330000D8320000A0320000000000009A
:1033100000330000FE2B00000C2C0000A82D000044
:10332000A82D0000B22B0000962A00005C2D0000A2
:10333000582C0000142D0000537439747970655FA7
:10334000696E666F000000000020202020202020F1
:103350002020282828282820202020202020202045
:103360002020202020202020208810101010101055
:1033700010101010101010101004040404040404A1
:10338000040404101010101010104141414141413B
:10339000010101010101010101010101010101011D
:1033A000010101011010101010104242424242422D
:1033B00002020202020202020202020202020202ED
:1033C0000202020210101010200000000000000095
:1033D00000000000000000000000000000000000ED
:1033E00000000000000000000000000000000000DD
:1033F00000000000000000000000000000000000CD
:1034000000000000000000000000000000000000BC
:1034100000000000000000000000000000000000AC
:10342000000000000000000000000000000000009C
:10343000000000000000000000000000000000008C
:10344000000000000000000000000000000000007C
:10345000000000000000000000000000000000006C
:10346000000000000000000000000000000000005C
:10347000000000000000000000000000000000004C
:10348000000000000000000000000000000000003C
:10349000000000000000000000000000000000002C
:0C34A00000000000000000000000000020
:1034AC0001020304050607080102030405060708C8
:1034BC0001020304050607080102030405060708B8
:1034CC00000000008C3400006C3400004C34000010
:1034DC0000000000000000000000000000000000E0
:1034EC0000000000000000000000000000000000D0
:1034FC0000000000000000000000000000000000C0
:10350C0000000000000000000000000000000000AF
:10351C00000000000000000000000000000000009F
:10352C00006CDC0244444444444444444444444415
:10353C00200000200000000048280000B4320000E9
:0C354C00E0310000B43200003833000011
:00000001FF
